:020000040800F2
:100000004805002045010008C90C0008C10400088B
:10001000C50C0008C9020008DF1400080000000039
:10002000000000000000000000000000ED0F0008CC
:10003000CD02000800000000510D0008D11000089A
:100040005F0100085F0100085F0100085F01000810
:100050005F0100085F0100085F0100085F01000800
:100060005F0100085F0100085F0100085F010008F0
:100070005F0100085F0100085F0100085F010008E0
:100080005F0100085F0100085F0100085F010008D0
:100090005F0100085F0100085F0100085F010008C0
:1000A0005F0100085F0100085F0100085F010008B0
:1000B000351100085F0100085F0100085F010008BA
:1000C0005F0100085F0100085F0100085F01000890
:1000D0005F010008F7120008FF1200085F01000826
:1000E0005F0100085F0100085F0100085F01000870
:1000F0005F0100085F0100085F0100085F01000860
:100100005F0100085F0100085F0100085F0100084F
:100110005F0100085F0100085F0100085F0100083F
:100120005F0100085F0100085F0100085F0100082F
:10013000DFF80CD000F018F8004800473D17000821
:10014000480500200648804706480047FEE7FEE7CE
:10015000FEE7FEE7FEE7FEE7FEE7FEE7FEE7FEE777
:10016000D510000831010008064C074D06E0E06894
:1001700040F0010394E8070098471034AC42F6D3EE
:10018000FFF7DAFFE41D0008041E000810B5002484
:1001900040F22551064801F0DEF840B104480088DD
:1001A00000F0200018B10248001D0088C4B210BD44
:1001B000003801407FB5044600F03EF82546009522
:1001C0000020ADF80400ADF80600ADF80800ADF869
:1001D0000C000C20ADF80A006946024801F00AF94B
:1001E0007FBD00000044004010B5002440F22551BE
:1001F000104801F0B0F860B120210E4801F09EF8DF
:10020000012806D10B4801F061F9C4B2204601F083
:10021000BDFC40F22771074801F09DF8012807D185
:100220008021044801F08AF8012801D101F02EFD57
:1002300010BD0000004400401CB50121042000F066
:100240005BFE00214FF4003000F046FE012148041F
:1002500000F042FE26208DF8000000208DF80100FD
:1002600007208DF8020001208DF80300684600F099
:100270002DFD0420ADF8040018208DF807000320A0
:100280008DF8060001A90F4800F021F80820ADF80C
:10029000040004208DF8070001A90A4800F017F8AF
:1002A0000220ADF8040010208DF8070003208DF81F
:1002B000060001A9034800F00AF80221014800F0F5
:1002C0009AF81CBD0008014000BFFEE770472DE909
:1002D000F0410246002500260020002300240027CC
:1002E00091F803C00CF00F0591F803C00CF0100C4E
:1002F000BCF1000F03D091F802C04CEA050591F85B
:1003000000C0BCF1000F31D0146800202BE04FF08A
:10031000010C0CFA00F3B1F800C00CEA03069E428F
:1003200020D183004FF00F0C0CFA03F7BC4305FA01
:1003300003FC4CEA040491F803C0BCF1280F06D179
:100340004FF0010C0CFA00FCC2F814C00AE091F85E
:1003500003C0BCF1480F05D14FF0010C0CFA00FCB2
:10036000C2F810C0401C0828D1D31460B1F800C0F6
:10037000BCF1FF0F34DD546800202EE000F1080CC2
:100380004FF0010808FA0CF3B1F800C00CEA0306BC
:100390009E4221D183004FF00F0C0CFA03F7BC43AF
:1003A00005FA03FC4CEA040491F803C0BCF1280FE1
:1003B00005D100F1080C08FA0CF8C2F8148091F885
:1003C00003C0BCF1480F07D100F1080C4FF0010841
:1003D00008FA0CF8C2F81080401C0828CED35460EC
:1003E000BDE8F0810246002093680B400BB101206C
:1003F00000E00020704741617047016170470000D4
:1004000008B501211C2000F077FD4FF4E070ADF835
:10041000000010208DF8030003208DF802006946CB
:100420002448FFF754FF0320ADF8000010208DF89A
:10043000030003208DF8020069461F48FFF747FFBD
:100440004FF46070ADF8000028208DF80300694675
:100450001948FFF73CFF4FF44070ADF8000028202A
:100460008DF8030069461548FFF731FF4FF480719E
:100470001048FFF7C2FF80210E48FFF7BEFF402162
:100480000C48FFF7BAFFC82001F0C2F8522000F074
:10049000C5F8302000F0C2F8002000F0BFF80A20B4
:1004A00000F0BCF8022000F0B9F8062000F0B6F821
:1004B00008BD0000000C0140001001400008014090
:1004C00000BFFEE710B5062000F04CFA0C23002216
:1004D0000249034800F006F810BD00002801002082
:1004E0002C0000202DE9F05F05460E461446984684
:1004F0000F274FF000095EE064B960064FEA106B09
:1005000028782F490F5C3946584600F0A5F8601C42
:10051000C4B26D1CECB1072C1BDC30782949085C97
:100520002978274A515C40EA010760064FEA106BC0
:100530003946584600F090F80120C0EB440000F026
:10054000FF0A3911504600F087F86D1C761C601CBC
:10055000C4B2072C1DDD0C2C1BD030781949085C67
:100560002978174A515C40EA01070120C0EB44009A
:1005700000F0FF0B3946584600F06EF860064FEA6F
:10058000106A3911504600F067F8761C6D1C601C2B
:10059000C4B20C2C0BD1287809490F5C0120C0EBA8
:1005A000440000F0FF0B3946584600F055F809F1B9
:1005B000010000F0FF09C1459EDBBDE8F09F00008F
:1005C00014010020D81D00082DE9F04105460C4615
:1005D00016464FF480711048FFF70DFF0321A0204D
:1005E00000F05EF8A906080E062100F059F8002771
:1005F00006E02078082100F053F8641C781CC7B28C
:10060000B742F6DB4FF480710348FFF7F6FE012096
:1006100001F01AF8BDE8F081000C014010B5044665
:100620004FF480710B48FFF7E6FE012001F00CF853
:100630000421802000F034F80821204600F030F832
:100640004FF480710348FFF7D8FE012000F0FCFF53
:1006500010BD0000000C014070B505460C464FF47B
:1006600080710E48FFF7C7FEA806050E2007040E8E
:100670000321A02000F014F80621284600F010F80D
:100680000421204600F00CF84FF480710348FFF776
:10069000B4FE012000F0D8FF70BD0000000C014046
:1006A0002DE9F04104460D468027002619E08021FF
:1006B0000E48FFF7A0FE04EA070020B140210B48D6
:1006C000FFF79BFE03E040210848FFF794FE7F10F0
:1006D000012000F0B9FF80210448FFF78EFE701C56
:1006E000C6B2AE42E3DBBDE8F0810000000C014081
:1006F00010B510480068B0F57A7F08D302210E4883
:10070000FFF779FE01210C48FFF777FE07E0022191
:100710000948FFF772FE01210748FFF76CFE054804
:100720000068B0F57A7F03D34FF47A70014908600E
:1007300010BD00004C0000200010014000201049B6
:10074000087048708870C870087148718871C871E5
:10075000087248728872C872087348738873C873C5
:100760000874487488740749087048708870C870A5
:10077000087148718871C871087248728872704730
:10078000140100202801002010B510220249002089
:10079000FFF71AFF10BD000033010020012805D12A
:1007A0006F49497821F001016D4A5170022805D145
:1007B0006B49897821F00101694A9170032805D1BC
:1007C0006749C97821F00101654AD170042805D133
:1007D0006349097921F00101614A1171052805D1A8
:1007E0005F49497921F001015D4A5171062805D11F
:1007F0005B49897921F00101594A9171072805D196
:100800005749C97921F00101554AD171082805D10C
:100810005349097A21F00101514A1172092805D181
:100820004F49497A21F001014D4A51720A2805D1F8
:100830004B49897A21F00101494A91720B2805D16F
:100840004749C97A21F00101454AD1720C2805D1E6
:100850004349497C21F00101414A51744049897C56
:100860003F4A527C11433E4A11730D2804D1114670
:10087000897C21F0080191743949897C384A527C7D
:100880001143374A11730E2804D11146897C21F097
:10089000040191743249897C314A527C1143304AB7
:1008A00011730F2804D11146897C21F00201917443
:1008B0002B49897C2A4A527C1143294A11731028FA
:1008C00004D11146097C21F0080111742449497BA7
:1008D000234A927B1143224AD27B1143204A127C45
:1008E00011431F4A1170112804D11146C97B21F010
:1008F0000401D1731A49497B194A927B1143184A62
:10090000D27B1143164A127C1143154A11701228EA
:1009100004D11146897B21F0020191731049497B72
:100920000F4A927B11430E4AD27B11430C4A127C30
:1009300011430B4A1170132804D11146497B21F051
:10094000010151730649497B054A927B1143044AD0
:10095000D27B1143024A127C1143014A1170704745
:1009600014010020012802D10121534A51700228AC
:1009700002D10121504A9170032802D101214E4A2F
:10098000D170042802D101214B4A1171052802D1EE
:100990000121494A5171062802D10121464A91712B
:1009A000072802D10121444AD171082802D101212E
:1009B000414A1172092802D101213F4A51720A2885
:1009C00002D101213C4A91720B2802D101213A4AFD
:1009D000D1720C2802D10121374A51743649897CE1
:1009E000354A527C1143344A11730D2801D1082134
:1009F00091743149897C304A527C11432E4A1173DB
:100A00000E2801D1042191742B49897C2A4A527CF9
:100A10001143294A11730F2801D1022191742649EB
:100A2000897C254A527C1143234A1173102801D135
:100A3000082111742049497B1F4A927B11431E4AA9
:100A4000D27B11431C4A127C11431B4A117011289E
:100A500001D10421D1731849497B174A927B114374
:100A6000154AD27B1143144A127C1143124A117069
:100A7000122801D1022191730F49497B0E4A927BC2
:100A800011430D4AD27B11430B4A127C11430A4A8F
:100A90001170132801D1012151730749497B064A7E
:100AA000927B1143044AD27B1143034A127C1143C7
:100AB000014A1170704700001401002010B54FF476
:100AC00000717448FFF78EFCC0B90A2000F0A0FD49
:100AD0004FF400716F48FFF785FC20B96E4800782D
:100AE000C0436D49087000BF4FF400716948FFF7BB
:100AF00079FC0028F8D00020684908604FF40071A4
:100B00006748FFF76FFC002843D16348007801284D
:100B10003FD10A2000F07CFD4FF400716048FFF7E0
:100B200061FC28BB5F48007818BB5F480078401C18
:100B30005D490870084600780A2804D10020087032
:100B400001205A49087059480078012809D15648AF
:100B50000078032805DB022053490870012053491F
:100B6000087052480078524948714F48007888719F
:100B700004E050480078C0434E49087000BF4FF46D
:100B800000714748FFF72EFC0028F8D000204349A9
:100B900008604FF480714248FFF724FC002844D1DC
:100BA0003D480078012840D10A2000F031FD4FF483
:100BB00080713B48FFF716FC30BB3A48007820BBF9
:100BC0003A480078012808D13748007828B9002031
:100BD000364908700A20344908703348007848B113
:100BE00031480078002805DD2F480078401E2E4946
:100BF000087002E000202C4908702C4800782C492D
:100C0000487129480078887104E02B480078C04377
:100C10002949087000BF4FF480712148FFF7E2FBBB
:100C20000028F8D000201D4908604FF48071194851
:100C3000FFF7D8FB60BB18480078012828D10A20AC
:100C400000F0E6FC4FF480711248FFF7CBFBA0B92F
:100C50001448007888B119480078012802D1002092
:100C60001649087016480078401C15490870084657
:100C70000078032801D10020087000BF4FF4807174
:100C80000448FFF7AFFB0028F8D0002003490860B4
:100C900010BD000000080140470000204C0000206B
:100CA00000100140480000204200002043000020C6
:100CB00028010020450000204600002041000020BF
:100CC0004000002000BFFEE77047000070B5002123
:100CD00000230F22C47804B3154C246804F4E064A4
:100CE000C4F5E064210AC1F10403CA40447804FA5F
:100CF00003F184781440214309010E4C0678A15574
:100D0000047804F01F050124AC4005786D11AD0096
:100D100005F1E025C5F8004109E0047804F01F055D
:100D20000124AC40044D0678761145F8264070BD8C
:100D30000CED00E000E400E080E100E00249014346
:100D4000024A1160704700000000FA050CED00E057
:100D50007047000010B55748007801286FD15648F9
:100D6000007805286CD2DFE800F0033C6C798F0036
:100D700080215248FFF736FB70B9002050490870B7
:100D800050480088002803DD04204B49087027E004
:100D900002204949087023E04A48008800281FDDE6
:100DA00048480088401E4749088008460088B8B96E
:100DB00043480078022813D10020434908600120ED
:100DC0004249087042480078401C41490870084672
:100DD0000078022801D100200870012038490870ED
:100DE00062E080213548FFF7FDFA20BB39480088D2
:100DF000401C3849088008460088C82803DA0220C9
:100E00002F4908701AE02E48007803280BD00320E1
:100E10002B49087000202C4908602C4908700120DB
:100E20002B4908700AE02B480088C82806DBC82038
:100E30002849088002E002201F49087034E037E0AA
:100E40002EE080211D48FFF7CDFA18B103201A4982
:100E5000087002E001201849087025E08021174839
:100E6000FFF7C0FA60B11B480088C82802DA0A20E0
:100E7000144908800020174908800F49087002E0D3
:100E800002200D4908700FE080210C48FFF7AAFAF4
:100E900028B101200A49087000200749087003E0C2
:100EA00000200549087000BF00BF642000F0CCFBA3
:100EB00010BD000047000020550000200010014038
:100EC00054000020520000204C0000204800002068
:100ED000410000205000002029B1064AD269024397
:100EE000044BDA6104E0034AD2698243014BDA61C0
:100EF000704700000010024029B1064A926902437F
:100F0000044B9A6104E0034A92698243014B9A615F
:100F1000704700000010024030B50021002200247C
:100F200000232D4D6D6805F00C0121B1042905D079
:100F3000082923D105E0294D056022E0274D0560F1
:100F40001FE0254D6D6805F47012234D6D6805F4A2
:100F50008034022505EB92421CB9214D55430560B2
:100F60000BE01D4D6D6805F400351DB11C4D55435A
:100F7000056002E0194D5543056002E0174D05601C
:100F800000BF00BF144D6D6805F0F0010909154D53
:100F90006B5C0568DD4045600F4D6D6805F4E061F0
:100FA000090A104D6B5C4568DD4085600A4D6D682F
:100FB00005F46051C90A0B4D6B5C4568DD40C560A6
:100FC000054D6D6805F44041890B074D6B5CC568A4
:100FD000B5FBF3F5056130BD0010024000127A0048
:100FE00000093D000000002010000020704710B5EF
:100FF00000F002F810BD00000CB500200190009038
:101000003148006840F480302F49086000BF2E4806
:10101000006800F4003000900198401C0190009896
:1010200018B90198B0F5A06FF1D12748006800F415
:10103000003010B10120009001E0002000900098E5
:1010400001283FD12148006840F010001F49086086
:101050000846006820F00300086008460068086041
:101060001948406818494860084640684860084682
:10107000406848600846406820F47C104860084694
:10108000406840F4981048600846006840F080705E
:10109000086000BF0C48006800F000700028F9D01C
:1010A0000948406820F00300074948600846406846
:1010B00040F00200486000BF0348406800F00C00A8
:1010C0000828F9D10CBD00000010024000200240A9
:1010D0007047000010B51348006840F00100114946
:1010E000086008464068104908400E4948600846B4
:1010F00000680E4908400B4908600846006820F463
:10110000802008600846406820F4FE0048604FF4E4
:101110001F008860FFF76BFF4FF000600449086014
:1011200010BD0000001002400000FFF8FFFFF6FEB7
:1011300008ED00E010B50121880700F035F8D0B1C6
:101140000D480068401C0C4908600C480068401CB1
:1011500020B10A480068401C084908600848006837
:10116000401C20B106480068401C05490860012168
:10117000880700F00AF810BD4C0000202400002071
:1011800028000020CA4302827047CA430282704787
:1011900021B1028842F00102028004E002884FF689
:1011A000FE731A400280704730B5024600200023CB
:1011B0000024158A05EA0103958905EA010413B1A3
:1011C0000CB1012000E0002030BD1AB183890B432F
:1011D000838102E083898B438381704700220288E8
:1011E0001D4B98420ED01D4B98420BD0B0F1804F52
:1011F00008D01B4B984205D01A4B984202D01A4B8C
:10120000984204D14FF68F731A404B881A43174BFC
:10121000984207D0164B984204D04FF6FF431A402D
:10122000CB881A4302808B8883850B8803850A4B01
:1012300098420BD0094B984208D00E4B984205D0EB
:101240000D4B984202D00D4B984201D10B7A038688
:101250000123838270470000002C014000340140CC
:101260000004004000080040000C00400010004056
:10127000001400400040014000440140004801408B
:101280000EB501210846FFF727FE4FF47A70ADF83E
:1012900004004720ADF800000020ADF802006946C8
:1012A0004FF08040FFF79AFF01218807FFF76AFFA0
:1012B000012211469007FFF788FF01218807FFF7F9
:1012C00067FF00210120FFF707FE0EBD08B54FF4B0
:1012D000E060FFF733FD1C208DF8000000208DF842
:1012E000010003208DF8020001208DF803006846FC
:1012F000FFF7ECFC08BD10B5FEF748FF10BD10B5B8
:10130000FEF772FF10BD10B50022002340F66A14EC
:10131000A14200D100BF0A1201249440A3B2DC43D1
:10132000048010BD21B1828942F40052828104E020
:1013300082894DF6FF731A40828170470246002071
:10134000B1F5007F00D100BF13880B400BB1012025
:1013500000E00020704770B50246002400230025FD
:10136000002040F66A16B14200D100BFC1F3421519
:1013700001F01F03012606FA03F3012D02D196891D
:10138000334006E0022D02D1168A334001E0968AEE
:1013900033400C12012606FA04F41688344013B1C7
:1013A0000CB1012000E0002070BDF0B50346002420
:1013B00000260025002040F66A17B94200D100BF80
:1013C0001846C1F3421401F01F06012707FA06F57B
:1013D000012C01D10C3004E0022C01D1103000E0CE
:1013E00014301AB107682F43076002E00768AF4363
:1013F0000760F0BD2DE9F04786B005460E46002493
:10140000A24600BFA1460027B08900B100BF2F4609
:101410002C8A4CF6FF700440F08804432C82AC897F
:101420004EF6F3100440B0883189084371890843AF
:101430000443AC81AC8A4FF6FF400440B0890443BA
:10144000AC8201A8FFF768FD1F48874202D1DDF892
:1014500010A001E0DDF80CA0A88900F4004040B124
:101460000AEBCA0000EB0A1031684900B0FBF1F842
:1014700007E00AEBCA0000EB0A1031688900B0FBF4
:10148000F1F86420B8FBF0F004012009642101FBAD
:101490001089A88900F4004040B1322000EBC90057
:1014A000B0FBF1F000F00700044308E0322000EB4D
:1014B00009106421B0FBF1F000F00F0004432C810F
:1014C00006B0BDE8F087000000380140014688887A
:1014D000C0F308007047C1F308028280704700BF64
:1014E000FEE702E008C8121F08C1002AFAD17047BF
:1014F0007047002001E001C1121F002AFBD1704794
:1015000000B58DB03F480078002878D000203D49D4
:10151000087000BF05E03C49095C0DF80010411C53
:10152000C8B23228F7DB9DF80000F1280AD19DF8F7
:101530000100F12806D19DF8020001285FD100F0DA
:1015400009FB5CE09DF80000F22858D19DF80100ED
:10155000F22854D19DF80A009DF80B1008318840FC
:101560002A4908819DF80C009DF80D10083188402B
:101570002649C8809DF80E009DF80F10083188405C
:10158000224988819DF810009DF81110083188408B
:101590001E4948819DF812009DF8131008318840BB
:1015A0001A4908829DF814009DF8151008318840EA
:1015B0001649C8819DF816009DF81710083188401B
:1015C000124988829DF818009DF81910083188404A
:1015D0000E4948829DF81A009DF81B10083188407A
:1015E0000A4908839DF81C009DF81D1008318840A9
:1015F0000649C8829DF81E00887600F041F80DB0BB
:1016000000BD0000150000205800002094000020BC
:10161000014642F228324A434FF0E0235A61002249
:101620009A6101221A6100BF4FF0E022106900F0B8
:1016300001021AB100F48032002AF5D000224FF0E6
:10164000E0231A619A617047014601EBC1024FF035
:10165000E0235A6100229A6101221A6100BF4FF013
:10166000E022106900F001021AB100F48032002A71
:10167000F5D000224FF0E0231A619A617047000014
:1016800070B52A48857E002600244BE02946204676
:1016900000F04EF820B3062C1AD2DFE804F003095C
:1016A0000D11150400BF01250A20FFF75BF910E0BA
:1016B0000920FFF757F90CE00820FFF753F908E07D
:1016C0000B20FFF74FF904E00C20FFF74BF900E087
:1016D00000BF00BF3220FFF79BFFFEF7F3FE1FE0C5
:1016E000062C1BD2DFE804F0030A0E12160400BF1A
:1016F000012D02D00A20FFF751F810E00920FFF772
:101700004DF80CE00820FFF749F808E00B20FFF740
:1017100045F804E00C20FFF741F800E000BF00BFEF
:10172000601CC4B2052CB1DD70BD00009400002027
:101730000246012090400840704700000EB5FEF7B9
:101740005FFEFFF79DFDFFF7C1FD01210846FFF792
:10175000C3FB02216048FEF74EFE01215E48FEF702
:101760004CFEFEF7EBFFFFF70FF83220FFF750FFBC
:1017700000F0F6FAAFE0FFF7A1F9FFF7EBFA00F09F
:10178000B5F8FFF7BDFE55480068B0F52F7FF1D9D9
:1017900053480078052803DB01205149087004E014
:1017A0004F480078401C4E4908704D4800784D491C
:1017B00008714B480078062863D2DFE800F0620326
:1017C00016293C4F4848C08800128DF80000464852
:1017D00080798DF801004448008900128DF80200DC
:1017E0004148007A8DF803004CE03F4840890012E0
:1017F0008DF800003C48807A8DF801003A488089D5
:1018000000128DF802003848007B8DF8030039E0A3
:101810003548C08900128DF800003348807B8DF870
:1018200001003148008A00128DF802002E48007C29
:101830008DF8030026E02C48408A00128DF8000045
:101840002948807C8DF801002748808A00128DF895
:1018500002002548007D8DF8030013E02248C08A6D
:1018600000128DF800002048807D8DF801001E4890
:10187000008B00128DF802001B48007E8DF80300DB
:1018800000E000BF00BF9DF802000011154908707C
:101890009DF8020000F00F0048709DF80300001151
:1018A00088709DF8030000F00F00C8709DF80000DC
:1018B0000011C8719DF8000000F00F0008729DF83B
:1018C0000100001148729DF8010000F00F008872BD
:1018D0000020024908604EE700100140240000206B
:1018E0001D000020280100209400002010B515489C
:1018F0000078012812D100F02FF800F035F800F040
:1019000039F800F05BF800F07DF800F09FF800F087
:10191000D3F8FEF7EDFEFEF7D5FD11E002210A48EF
:10192000FEF769FDFEF730FF084800780849487166
:10193000084800788871002004490870054908703B
:1019400010BD0000470000200010014043000020AF
:10195000280100204200002000B51220FFF702F805
:101960001320FEF7FFFF00BD00B50420FEF7FAFFCD
:1019700000BD000000B50E480078012806D11020F7
:10198000FEF7F0FF01200B49C87010E00A4800780C
:10199000012806D11020FEF7E5FF01200549C87097
:1019A00005E01020FEF7FAFE00200249C87000BDD5
:1019B00045000020940000204100002000B50E48A2
:1019C0000078012806D11120FEF7CCFF01200B4939
:1019D000087110E00A480078012806D11120FEF7AE
:1019E000C1FF01200549087105E01120FEF7D6FE70
:1019F00000200249087100BD46000020940000202C
:101A00004100002000B50F48007828B90D20FEF7EE
:101A1000A9FF01200C4988700A480078012805D1E7
:101A20000E20FEF79FFF01200749887005480078C7
:101A3000022805D10F20FEF795FF0020024988708B
:101A400000BD0000400000209400002000B51748B1
:101A5000007858B90320FEF7A1FE0120FEF79EFE94
:101A60000220FEF77FFF0020114948700F480078E0
:101A700001280BD10220FEF791FE0320FEF772FF32
:101A80000120FEF78BFE01200949487009480078C3
:101A900058B90220FEF782FE0320FEF77FFE0120E8
:101AA000FEF760FF02200249487000BD410000209F
:101AB000940000204800002000B52248007878B942
:101AC0002148007821490978084448B10520FEF7EB
:101AD00049FF0620FEF746FF0720FEF743FF2FE0F1
:101AE0001848007801280FD117480078174909785D
:101AF000084448B10520FEF735FF0620FEF732FF07
:101B00000720FEF72FFF1BE01148007878B90E4838
:101B100000780E490978084448B10520FEF722FFF5
:101B20000620FEF71FFF0720FEF71CFF08E0052038
:101B3000FEF734FE0620FEF731FE0720FEF72EFEEC
:101B400000BD0000410000204200002043000020B2
:101B50004800002010B58AB001208DF804001B2039
:101B60008DF80500002406E00748015DA01C01AACD
:101B70001154601CC4B21B2CF6DB1D2101A800F01F
:101B800003F900200AB010BD94000020374909680D
:101B9000374A126891420BD934490968344A1268AD
:101BA000891AB1F5487F03D90021324A1170704774
:101BB00030490978F1B9F12807D0F22805D0002181
:101BC0002D4A11702B4A1170F1E72C490978F1293F
:101BD00003D107212A4A117002E02121284A1170FD
:101BE0002849254A127888540121234A1170214A34
:101BF000117035E020490978012917D1F12809D061
:101C000020490978F12905D100211B4A1170194A90
:101C10001170CCE7F22809D01A490978F22905D1C8
:101C20000021154A1170134A1170C0E71549124A74
:101C30001278885410490978491C0F4A11701146CE
:101C400009780F4A127891420ADB00210A4A117082
:101C5000084A117001210C4A11700021034A1160D9
:101C600002490968024A116000BFA0E7280000206D
:101C7000200000201A0000201B0000201900002076
:101C80001C000020580000201500002010B51F483F
:101C900000781F490978884211DC1E481B4A1278D7
:101CA000815C1D48FFF717FC40F227711A48FFF7C7
:101CB0002AFB16480078401C144908701DE015489E
:101CC000124A1278815C1448FFF705FC40F2277134
:101CD0001148FFF718FB00200C49087001200F493C
:101CE0000870002240F227710B48FFF75EFB0020CE
:101CF0000B49086002200B49086004480078282836
:101D000002DD00200149087010BD0000160000200F
:101D100018000020B0000020004400401700002000
:101D2000280000201408014010B500200849087060
:101D3000084908700220084908600120FFF768FC84
:101D4000012240F227710548FFF72FFB10BD00006C
:101D5000170000201500002010080140004400403A
:101D600010B5FEF769FA4FF41650FEF723FA012278
:101D700040F225510348FFF718FB01210148FFF706
:101D8000D1FA10BD004400402DE9F04105460E4651
:101D9000F2200F4908704870002408E0295D0C4AC1
:101DA000A01C1154285D3844C7B2601CC4B2B442B0
:101DB000F4DB0749A01C0F547E21054AE01C115496
:101DC000301D04490870FFF7AFFF0120BDE8F08126
:101DD000B000002018000020FA0ABC9E4ED6F68AF9
:101DE000FEDE0000041E0008000000205800000075
:101DF000E21400085C1E000858000020F0040000F7
:101E0000F2140008000000000102030401020304B0
:101E10000607080902040608000000000000000090
:101E200000010000000000000000000000000000B1
:101E3000000102030405060708090A0B0C0D0E0F2A
:101E40001011121300000000000101010100000048
:0C1E500000000000000000000000000086
:0400000508000131BD
:00000001FF
