:020000040800F2
:100000008805002045010008590D0008D9040008A2
:10001000550D0008C90200084B1700080000000039
:10002000000000000000000000000000591200085D
:10003000CD02000800000000F90D00083D13000883
:100040005F0100085F0100085F0100085F01000810
:100050005F0100085F0100085F0100085F01000800
:100060005F0100085F0100085F0100085F010008F0
:100070005F0100085F0100085F0100085F010008E0
:100080005F0100085F0100085F0100085F010008D0
:100090005F0100085F0100085F0100085F010008C0
:1000A0005F0100085F0100085F0100085F010008B0
:1000B000A11300085F0100085F0100085F0100084C
:1000C0005F0100085F0100085F0100085F01000890
:1000D0005F010008631500086B1500085F01000848
:1000E0005F0100085F0100085F0100085F01000870
:1000F0005F0100085F0100085F0100085F01000860
:100100005F0100085F0100085F0100085F0100084F
:100110005F0100085F0100085F0100085F0100083F
:100120005F0100085F0100085F0100085F0100082F
:10013000DFF80CD000F018F800480047911C0008C8
:10014000880500200648804706480047FEE7FEE78E
:10015000FEE7FEE7FEE7FEE7FEE7FEE7FEE7FEE777
:100160004113000831010008064C074D06E0E06825
:1001700040F0010394E8070098471034AC42F6D3EE
:10018000FFF7DAFF402300086023000810B50024C1
:1001900040F22551064801F014FA40B104480088A5
:1001A00000F0200018B10248001D0088C4B210BD44
:1001B000003801407FB5044600F03EF82546009522
:1001C0000020ADF80400ADF80600ADF80800ADF869
:1001D0000C000C20ADF80A006946024801F040FA14
:1001E0007FBD00000044004010B5002440F22551BE
:1001F000104801F0E6F960B120210E4801F0D4F971
:10020000012806D10B4801F097FAC4B2204601F04C
:1002100057FF40F22771074801F0D3F9012807D1B1
:100220008021044801F0C0F9012801D101F0B8FF94
:1002300010BD0000004400401CB50121042000F066
:1002400091FF00214FF4003000F07CFF01214804B1
:1002500000F078FF26208DF8000000208DF80100C6
:1002600007208DF8020001208DF80300684600F099
:1002700075FD0420ADF8040018208DF80700032058
:100280008DF8060001A90F4800F02EF80820ADF8FF
:10029000040004208DF8070001A90A4800F024F8A2
:1002A0000220ADF8040010208DF8070003208DF81F
:1002B000060001A9034800F017F80221014800F0E8
:1002C000A7F81CBD0008014000BFFEE77047000012
:1002D000012803D10121034AD17002E00021014A23
:1002E000D1707047D80000202DE9F041024600256A
:1002F0000026002000230024002791F803C00CF002
:100300000F0591F803C00CF0100CBCF1000F03D0E6
:1003100091F802C04CEA050591F800C0BCF1000F4D
:1003200031D0146800202BE04FF0010C0CFA00F3E0
:10033000B1F800C00CEA03069E4220D183004FF0C2
:100340000F0C0CFA03F7BC4305FA03FC4CEA040457
:1003500091F803C0BCF1280F06D14FF0010C0CFA44
:1003600000FCC2F814C00AE091F803C0BCF1480FC9
:1003700005D14FF0010C0CFA00FCC2F810C0401C73
:100380000828D1D31460B1F800C0BCF1FF0F34DDF0
:10039000546800202EE000F1080C4FF0010808FA24
:1003A0000CF3B1F800C00CEA03069E4221D1830091
:1003B0004FF00F0C0CFA03F7BC4305FA03FC4CEAB0
:1003C000040491F803C0BCF1280F05D100F1080C1A
:1003D00008FA0CF8C2F8148091F803C0BCF1480F79
:1003E00007D100F1080C4FF0010808FA0CF8C2F828
:1003F0001080401C0828CED35460BDE8F08102462E
:10040000002093680B400BB1012000E000207047F2
:10041000416170470161704708B501211C2000F05F
:10042000A1FE4FF4E070ADF8000010208DF803003D
:1004300003208DF8020069462448FFF755FF03208A
:10044000ADF8000010208DF8030003208DF80200A5
:1004500069461F48FFF748FF4FF46070ADF8000091
:1004600028208DF8030069461948FFF73DFF4FF437
:100470004070ADF8000028208DF80300694615484B
:10048000FFF732FF4FF480711048FFF7C3FF802160
:100490000E48FFF7BFFF40210C48FFF7BBFFC82005
:1004A00001F0A4FA522000F0C5F8302000F0C2F8A4
:1004B000002000F0BFF80A2000F0BCF8022000F095
:1004C000B9F8062000F0B6F808BD0000000C0140A5
:1004D000001001400008014000BFFEE710B50620F3
:1004E00000F04CFA0C2300220249034800F006F801
:1004F00010BD00006C010020350000202DE9F05FE8
:1005000005460E46144698460F274FF000095EE058
:1005100064B960064FEA106B28782F490F5C3946A2
:10052000584600F0A5F8601CC4B26D1CECB1072C55
:100530001BDC30782949085C2978274A515C40EA5D
:10054000010760064FEA106B3946584600F090F8F4
:100550000120C0EB440000F0FF0A3911504600F0C2
:1005600087F86D1C761C601CC4B2072C1DDD0C2C9A
:100570001BD030781949085C2978174A515C40EA49
:1005800001070120C0EB440000F0FF0B394658463C
:1005900000F06EF860064FEA106A3911504600F01C
:1005A00067F8761C6D1C601CC4B20C2C0BD128782B
:1005B00009490F5C0120C0EB440000F0FF0B3946F5
:1005C000584600F055F809F1010000F0FF09C14557
:1005D0009EDBBDE8F09F0000580100203423000896
:1005E0002DE9F04105460C4616464FF4807110483F
:1005F000FFF70EFF0321A02000F05EF8A906080E09
:10060000062100F059F8002706E02078082100F0C4
:1006100053F8641C781CC7B2B742F6DB4FF4807104
:100620000348FFF7F7FE012001F0FCF9BDE8F08177
:10063000000C014010B504464FF480710B48FFF7E1
:10064000E7FE012001F0EEF90421802000F034F8EB
:100650000821204600F030F84FF480710348FFF77E
:10066000D9FE012001F0DEF910BD0000000C0140B0
:1006700070B505460C464FF480710E48FFF7C8FE72
:10068000A806050E2007040E0321A02000F014F890
:100690000621284600F010F80421204600F00CF84E
:1006A0004FF480710348FFF7B5FE012001F0BAF95D
:1006B00070BD0000000C01402DE9F04104460D46DC
:1006C0008027002619E080210E48FFF7A1FE04EAEA
:1006D000070020B140210B48FFF79CFE03E04021BA
:1006E0000848FFF795FE7F10012001F09BF980215B
:1006F0000448FFF78FFE701CC6B2AE42E3DBBDE8D4
:10070000F0810000000C014010B51048006840F670
:10071000B831884208D302210D48FFF779FE012144
:100720000B48FFF777FE07E002210948FFF772FE4A
:1007300001210748FFF76CFE0448006840F6B83115
:10074000884202D308460149086010BD4C000020D1
:100750000010014000201049087048708870C8706F
:10076000087148718871C871087248728872C872BD
:10077000087348738873C873087448748874074989
:10078000087048708870C870087148718871C871A5
:100790000872487288727047580100206C0100206E
:1007A00010B5102202490020FFF71AFF10BD00000B
:1007B00077010020012805D16F49497821F0010116
:1007C0006D4A5170022805D16B49897821F00101E9
:1007D000694A9170032805D16749C97821F0010160
:1007E000654AD170042805D16349097921F00101D6
:1007F000614A1171052805D15F49497921F001014C
:100800005D4A5171062805D15B49897921F00101C2
:10081000594A9171072805D15749C97921F0010139
:10082000554AD171082805D15349097A21F00101AF
:10083000514A1172092805D14F49497A21F0010125
:100840004D4A51720A2805D14B49897A21F001019C
:10085000494A91720B2805D14749C97A21F0010113
:10086000454AD1720C2805D14349497C21F0010148
:10087000414A51744049897C3F4A527C11433E4A67
:1008800011730D2804D11146897C21F0080191745F
:100890003949897C384A527C1143374A11730E28F2
:1008A00004D11146897C21F0040191743249897C7C
:1008B000314A527C1143304A11730F2804D111463A
:1008C000897C21F0020191742B49897C2A4A527C4F
:1008D0001143294A1173102804D11146097C21F0D3
:1008E000080111742449497B234A927B1143224A0F
:1008F000D27B1143204A127C11431F4A11701128E8
:1009000004D11146C97B21F00401D1731A49497BF6
:10091000194A927B1143184AD27B1143164A127C22
:100920001143154A1170122804D11146897B21F018
:10093000020191731049497B0F4A927B11430E4A81
:10094000D27B11430C4A127C11430B4A11701328BD
:1009500004D11146497B21F0010151730649497BBD
:10096000054A927B1143044AD27B1143024A127C0E
:100970001143014A1170704758010020012802D12B
:100980000121534A5170022802D10121504A91702D
:10099000032802D101214E4AD170042802D101213D
:1009A0004B4A1171052802D10121494A517106288B
:1009B00002D10121464A9171072802D10121444AFE
:1009C000D171082802D10121414A1172092802D1AE
:1009D00001213F4A51720A2802D101213C4A9172F9
:1009E0000B2802D101213A4AD1720C2802D10121EF
:1009F000374A51743649897C354A527C1143344A0E
:100A000011730D2801D1082191743149897C304A34
:100A1000527C11432E4A11730E2801D10421917486
:100A20002B49897C2A4A527C1143294A11730F2889
:100A300001D1022191742649897C254A527C1143B7
:100A4000234A1173102801D1082111742049497BD0
:100A50001F4A927B11431E4AD27B11431C4A127CCF
:100A600011431B4A1170112801D10421D173184977
:100A7000497B174A927B1143154AD27B1143144A92
:100A8000127C1143124A1170122801D10221917374
:100A90000F49497B0E4A927B11430D4AD27B114389
:100AA0000B4A127C11430A4A1170132801D101210B
:100AB00051730749497B064A927B1143044AD27B12
:100AC0001143034A127C1143014A11707047000020
:100AD0005801002010B54FF400718648FFF78FFCD5
:100AE000002857D184480078012853D10A2000F00B
:100AF0007DFF4FF400717F48FFF781FC00283ED155
:100B00007E48007868BB7C4840797D49487108463A
:100B10004079401C4871084640797A490870084677
:100B200000780A2804D10020087001207649087056
:100B30007548007801280CD172480078032808DB3A
:100B400002207049087001206F4908700C206C4920
:100B500048716D4800786D4948716A48007888711D
:100B60000DE065484078022809D16348C07818B97B
:100B70000120FFF7ADFB02E00020FFF7A9FB00BF5B
:100B80004FF400715B48FFF73AFC0028F8D00020D2
:100B90005F4908604FF480715648FFF730FC002829
:100BA00062D15548007801285ED10A2000F01EFF6E
:100BB0004FF480714F48FFF722FC002849D14F487D
:100BC0000078B8BB50480078012808D14D4800781B
:100BD00028B900204C4908700A204A490870494841
:100BE000007880B14748007800280CDD44484079FF
:100BF00020B143484079401E4149487140484079FE
:100C00004049087004E000203E4908703C494871A2
:100C10003D4800783D4948713A48007888713A4823
:100C2000007800EB80003749097801EB4000344937
:100C300048710EE0FFE730484078022809D12E487D
:100C4000007918B9012000F0CBF802E0002000F094
:100C5000C7F800BF4FF480712648FFF7D0FB00288B
:100C6000F8D000202A4908604FF480712948FFF726
:100C7000C6FB70BB20480078012839D10A2000F05B
:100C8000B5FE4FF480712348FFF7B9FB00BB1B484A
:100C90000078E8B11848807818B9012001F026FBE7
:100CA0001BE015488078012803D1022001F01EFBCB
:100CB00013E011488078022803D1032001F016FBCD
:100CC0000BE00D488078032804D1012001F00EFBD1
:100CD00003E00DE0002001F009FB00BF4FF480713C
:100CE0000C48FFF78CFB0028F8D00020084908606A
:100CF00010BD000000100140BC0000204B0000208F
:100D0000D8000020490000204A0000206C0100208B
:100D10004C0000200008014010B50446022C01D10F
:100D20000B494870012C02D1012009494870032C5D
:100D300008D10220FFF73EFD0320FFF73BFD012015
:100D4000FFF71CFE042C01D101F080F910BD00005A
:100D5000D800002000BFFEE77047000070B50021FA
:100D600000230F22C47804B3154C246804F4E06413
:100D7000C4F5E064210AC1F10403CA40447804FACE
:100D800003F184781440214309010E4C0678A155E3
:100D9000047804F01F050124AC4005786D11AD0006
:100DA00005F1E025C5F8004109E0047804F01F05CD
:100DB0000124AC40044D0678761145F8264070BDFC
:100DC0000CED00E000E400E080E100E002490143B6
:100DD000024A1160704700000000FA050CED00E0C7
:100DE000012803D10121034A117102E00021014AC7
:100DF00011717047D80000207047000010B562489C
:100E00000078012876D161480078052873D2DFE8A0
:100E100000F00348828FA50080215D48FFF7EFFABC
:100E200070B900205B4908705B480088002803DD2A
:100E300004205649087033E00220544908702FE01E
:100E40005548008800282BDD53480088401E524931
:100E500008800846008818BB4E48007802281FD139
:100E600000204E4908604E48007818B901204C49CE
:100E7000087012E044484078012803D10220FFF7AF
:100E80004BFF0AE040484078022803D10120FFF7D9
:100E900043FF02E00220FFF73FFF01203D490870B9
:100EA0006CE080213A48FFF7AAFA78BB3D480088F9
:100EB000401C3C49088008460088B0F5C87F03DA2A
:100EC00002203449087025E032480078032813D006
:100ED000032030490870002030490860304908700C
:100EE0000220FFF767FC0320FFF764FC0120FFF7F7
:100EF00045FD0FE046E03DE02A480088B0F5C87F98
:100F000008DB4FF4C8702749088003E0FFE70220A0
:100F10001E49087032E080211D48FFF770FA18B1B1
:100F200003201A49087002E001201849087025E0E2
:100F300080211748FFF763FA60B11A480088C82873
:100F400002DA0A20144908800020164908800F4957
:100F5000087002E002200D4908700FE080210C4863
:100F6000FFF74DFA28B101200A490870002007490F
:100F7000087003E000200549087000BF00BF64202E
:100F800000F050FD10BD0000BC0000205600002005
:100F90000010014054000020520000204C000020AE
:100FA0004B0000205000002010B55D480078052857
:100FB00074D2DFE800F0034379879E004FF400719C
:100FC0005848FFF71CFA70B9002057490870574875
:100FD0000088002803DD0420514908702DE002201C
:100FE0004F49087029E051480088002825DD4F4806
:100FF0000088401E4D49088008460088E8B94A48E4
:101000000078022819D10020494908604948007831
:1010100018B901204849087002E0002046490870CC
:101020004648007818B100204449087002E00120C9
:101030004249087001203C4908706BE04FF4007190
:101040003848FFF7DCF950BB3D480088401C3C495C
:10105000088008460088B0F5C87F03DA02203249CC
:10106000087020E03048007803280DD003202E4976
:10107000087000202E4908602E480078012812D1FF
:101080000420FFF749FE0EE02D480088B0F5C87F28
:1010900009DB4FF4C8702A49088004E036E0FFE716
:1010A00002201F49087035E04FF400711D48FFF71A
:1010B000A6F918B103201A49087002E00120184966
:1010C000087027E04FF400711648FFF798F960B1F7
:1010D0001B480088C82802DA0A201449088000202A
:1010E000174908800E49087002E002200C49087078
:1010F00010E04FF400710B48FFF781F928B101208F
:101100000949087000200649087003E000200449DE
:10111000087000BF00BF642000F084FC10BD000018
:10112000550000200008014054000020520000201B
:101130004C000020BC000020D8000020340000201B
:101140005000002029B1064AD2690243044BDA61FB
:1011500004E0034AD2698243014BDA617047000020
:101160000010024029B1064A92690243044B9A6179
:1011700004E0034A92698243014B9A617047000080
:101180000010024030B500210022002400232D4D24
:101190006D6805F00C0121B1042905D0082923D17F
:1011A00005E0294D056022E0274D05601FE0254D33
:1011B0006D6805F47012234D6D6805F480340225C6
:1011C00005EB92421CB9214D554305600BE01D4DC6
:1011D0006D6805F400351DB11C4D5543056002E0F6
:1011E000194D5543056002E0174D056000BF00BF73
:1011F000144D6D6805F0F0010909154D6B5C05682B
:10120000DD4045600F4D6D6805F4E061090A104D41
:101210006B5C4568DD4085600A4D6D6805F4605182
:10122000C90A0B4D6B5C4568DD40C560054D6D68B6
:1012300005F44041890B074D6B5CC568B5FBF3F5C0
:10124000056130BD0010024000127A0000093D0027
:101250000000002010000020704710B500F002F8D8
:1012600010BD00000CB500200190009031480068CE
:1012700040F480302F49086000BF2E48006800F419
:10128000003000900198401C0190009818B9019816
:10129000B0F5A06FF1D12748006800F4003010B11C
:1012A0000120009001E000200090009801283FD12B
:1012B0002148006840F010001F4908600846006897
:1012C00020F003000860084600680860194840687C
:1012D00018494860084640684860084640684860C9
:1012E0000846406820F47C1048600846406840F496
:1012F000981048600846006840F08070086000BFA1
:101300000C48006800F000700028F9D009484068D7
:1013100020F00300074948600846406840F002009A
:10132000486000BF0348406800F00C000828F9D16D
:101330000CBD000000100240002002407047000079
:1013400010B51348006840F00100114908600846D4
:101350004068104908400E494860084600680E4938
:1013600008400B4908600846006820F480200860A7
:101370000846406820F4FE0048604FF41F00886073
:10138000FFF76BFF4FF000600449086010BD0000DC
:10139000001002400000FFF8FFFFF6FE08ED00E03D
:1013A00010B50121880700F035F8D0B10D4800686C
:1013B000401C0C4908600C480068401C20B10A48D9
:1013C0000068401C0849086008480068401C20B1BB
:1013D00006480068401C054908600121880700F0A4
:1013E0000AF810BD4C0000202C0000203000002026
:1013F000CA4302827047CA430282704721B1028801
:1014000042F00102028004E002884FF6FE731A40A7
:101410000280704730B50246002000230024158A60
:1014200005EA0103958905EA010413B10CB1012015
:1014300000E0002030BD1AB183890B43838102E0B4
:1014400083898B4383817047002202881D4B984219
:101450000ED01D4B98420BD0B0F1804F08D01B4BE3
:10146000984205D01A4B984202D01A4B984204D1A8
:101470004FF68F731A404B881A43174B984207D088
:10148000164B984204D04FF6FF431A40CB881A43BC
:1014900002808B8883850B8803850A4B98420BD08A
:1014A000094B984208D00E4B984205D00D4B9842FC
:1014B00002D00D4B984201D10B7A0386012383821F
:1014C00070470000002C014000340140000400403F
:1014D00000080040000C00400010004000140040D4
:1014E0000040014000440140004801400EB5012188
:1014F0000846FFF727FE4FF47A70ADF80400472046
:10150000ADF800000020ADF8020069464FF08040C1
:10151000FFF79AFF01218807FFF76AFF01221146B2
:101520009007FFF788FF01218807FFF767FF002179
:101530000120FFF707FE0EBD08B54FF4E060FFF78E
:1015400045FC1C208DF8000000208DF801000320D0
:101550008DF8020001208DF803006846FFF7FEFBBE
:1015600008BD10B5FEF712FE10BD10B5FEF73CFE2B
:1015700010BD10B50022002340F66A14A14200D12C
:1015800000BF0A1201249440A3B2DC43048010BDC2
:1015900021B1828942F40052828104E082894DF6B1
:1015A000FF731A408281704702460020B1F5007F28
:1015B00000D100BF13880B400BB1012000E00020D8
:1015C000704770B50246002400230025002040F635
:1015D0006A16B14200D100BFC1F3421501F01F03EA
:1015E000012606FA03F3012D02D19689334006E065
:1015F000022D02D1168A334001E0968A33400C1244
:10160000012606FA04F41688344013B10CB1012007
:1016100000E0002070BDF0B5034600240026002540
:10162000002040F66A17B94200D100BF1846C1F346
:10163000421401F01F06012707FA06F5012C01D11B
:101640000C3004E0022C01D1103000E014301AB14B
:1016500007682F43076002E00768AF430760F0BDEB
:101660002DE9F04786B005460E460024A24600BF8D
:10167000A1460027B08900B100BF2F462C8A4CF646
:10168000FF700440F08804432C82AC894EF6F310BE
:101690000440B08831890843718908430443AC8110
:1016A000AC8A4FF6FF400440B0890443AC8201A8E5
:1016B000FFF768FD1F48874202D1DDF810A001E066
:1016C000DDF80CA0A88900F4004040B10AEBCA0084
:1016D00000EB0A1031684900B0FBF1F807E00AEBB3
:1016E000CA0000EB0A1031688900B0FBF1F86420F1
:1016F000B8FBF0F004012009642101FB1089A889DE
:1017000000F4004040B1322000EBC900B0FBF1F022
:1017100000F00700044308E0322000EB09106421C8
:10172000B0FBF1F000F00F0004432C8106B0BDE8DF
:10173000F08700000038014001468888C0F30800A7
:101740007047C1F308028280704700BFFEE702E0E5
:1017500008C8121F08C1002AFAD17047704700203C
:1017600001E001C1121F002AFBD1704700B58BB008
:1017700081480078002838D000207F49087000BFD9
:1017800005E07E49095C01AA1154411CC8B2282811
:10179000F7DB7A4800791B2802D1012078490870CC
:1017A0009DF80400F12830D19DF80500F1282CD1D6
:1017B00073480078012828D19DF80600012814D12B
:1017C00070480078FF2805D06E4800786E49097887
:1017D000884217D06C480078012807D16A48007801
:1017E00068490870012000F057FCC3E066480078A3
:1017F0000028FAD16448007862490870002000F09F
:101800004BFCB7E000F028FCB4E09DF80400F2289F
:10181000EBD19DF80500F228E7D101205849087066
:101820009DF81000000259490881084600899DF87A
:1018300011100844554908819DF80E000002C88027
:101840000846C0889DF80F1008445049C8809DF88C
:10185000140000028881084680899DF8151008440C
:101860004A4988819DF81200000248810846408953
:101870009DF813100844454948819DF8180000025E
:1018800008820846008A9DF8191008443F490882DA
:101890009DF816000002C8810846C0899DF81710FF
:1018A00008443A49C8819DF81C0000028882084615
:1018B000808A9DF81D100844344988829DF81A00DA
:1018C000000248820846408A9DF81B1008442F49B0
:1018D00048829DF82000000208830846008B9DF88E
:1018E00021100844294908839DF81E000002C8827F
:1018F0000846C08A9DF81F1008442449C8829DF8F4
:10190000220088769DF8080008709DF8090048704C
:101910009DF80A0088709DF80B00C8709DF80C00B7
:1019200008719DF80D00487119480078FF2805D00E
:10193000084600781649097888420DD01348007887
:1019400018B9002000F010FB02E0012000F00CFBB1
:101950000E4800780E49087000F096F800F01CF967
:10196000002005E00949095C0A4A1154411CC8B22B
:101970000728F7DB0BB000BD150000205800002041
:10198000190000202500002034000020BC000020A9
:1019900024000020D80000202DE9F04105460E4625
:1019A0000027F1200F4908704870002408E0295DE5
:1019B0000C4AA01C1154285D3844C7B2601CC4B244
:1019C000B442F4DB0749A01C0F547E21054AE01CF9
:1019D0001154301D0449087000F030FC0120BDE8AE
:1019E000F0810000F400002018000020014642F2BF
:1019F00028324A434FF0E0235A6100229A610122C3
:101A00001A6100BF4FF0E022106900F001021AB124
:101A100000F48032002AF5D000224FF0E0231A6152
:101A20009A617047014601EBC1024FF0E0235A6111
:101A300000229A6101221A6100BF4FF0E022106972
:101A400000F001021AB100F48032002AF5D0002221
:101A50004FF0E0231A619A6170470000002004E013
:101A60000021074A1154411CC8B21C28F8D3FF209A
:101A700004490870002002498876012008707047E8
:101A8000BC0000202400002070B5414846788378CF
:101A9000C478057926B1012E03D0022E21D110E0A1
:101AA00020E03C48007858B10220FEF783FE032076
:101AB000FEF764FF0120FEF77DFE012034494870E7
:101AC00010E03448007858B10320FEF773FE01207F
:101AD000FEF770FE0220FEF751FF02202C494870ED
:101AE00000E000BF00BF33B1012B11D0022B16D094
:101AF000032B22D11AE00D20FEF75CFE0E20FEF72C
:101B000059FE0F20FEF756FE00202149887015E08F
:101B10000D20FEF733FF01201D4988700EE00E20D6
:101B2000FEF72CFF02201A49887007E00F20FEF70D
:101B300025FF03201649887000E000BF00BF14B1E4
:101B4000012C0ED106E01020FEF734FE00201049D3
:101B5000C87007E01020FEF711FF01200C49C87083
:101B600000E000BF00BF15B1012D0ED106E011202D
:101B7000FEF720FE00200649087107E01120FEF75D
:101B8000FDFE00200249087100E000BF00BF70BDEB
:101B9000BC0000204B0000202DE9F0412E48867E3D
:101BA00000273146002000F059F8054615B10B20FA
:101BB000FEF7E4FE15B90B20FEF7FCFD012446E01C
:101BC0003146204600F04AF810B3052C18D2DFE861
:101BD00004F00F0307130B000A20FEF7CFFE10E0FE
:101BE0000920FEF7CBFE0CE00820FEF7C7FE08E058
:101BF0000B20FEF7C3FE04E00C20FEF7BFFE00E062
:101C000000BF00BF3220FFF7F1FEFEF767FC1CE0CB
:101C1000052C18D2DFE804F00F0307130B000A208D
:101C2000FEF7C8FD10E00920FEF7C4FD0CE0082017
:101C3000FEF7C0FD08E00B20FEF7BCFD04E00C2021
:101C4000FEF7B8FD00E000BF00BF601CC4B2052C69
:101C5000B6DDBDE8F0810000BC0000200246012096
:101C6000904008407047000039B1084A927E012335
:101C700083401A43054B9A7606E0044A927E01237C
:101C800083409A43014B9A7670470000D8000020A9
:101C90000EB5FEF7C1FBFFF729FCFFF74DFC012154
:101CA0000846FFF74FFA02219648FEF7B1FB0121E3
:101CB0009448FEF7AFFBFEF74DFDFEF771FD3220B5
:101CC000FFF794FEFFF7CAFE00F0D4FA4FF47A70E3
:101CD0008D49086015E1FFF767F9FEF7FBFEFFF796
:101CE0008DF800F019F9FFF741FD87480068B0F55D
:101CF0007A7FEFD90021FDE084480078052803DBD6
:101D00000120824A107004E080480078401C7F4A1D
:101D100010707E4800787E4A10717C480078062852
:101D200063D2DFE800F0620316293C4F7948C0888F
:101D300000128DF80000774880798DF80100754811
:101D4000008900128DF802007248007A8DF80300B5
:101D50004CE07048408900128DF800006D48807A90
:101D60008DF801006B48808900128DF802006948E7
:101D7000007B8DF8030039E06648C08900128DF8B9
:101D800000006448807B8DF801006248008A0012E0
:101D90008DF802005F48007C8DF8030026E05D4866
:101DA000408A00128DF800005A48807C8DF80100AE
:101DB0005848808A00128DF802005648007D8DF840
:101DC000030013E05348C08A00128DF80000514808
:101DD000807D8DF801004F48008B00128DF80200C5
:101DE0004C48007E8DF8030000E000BF00BF9DF866
:101DF000000048B99DF8010030B99DF8020018B9FB
:101E00009DF8030000B973E09DF8002010029DF8D2
:101E10000120024490B24FF47A7290FBF2F23C4BF4
:101E20001A704FF47A7290FBF2F302FB13026423F0
:101E300092FBF3F2364B5A704FF47A7290FBF2F346
:101E400002FB1302642392FBF3F403FB14220A2324
:101E500092FBF3F22E4B9A704FF47A7290FBF2F3EE
:101E600002FB1302642392FBF3F403FB14220A2304
:101E700092FBF3F403FB1422254BDA709DF8022049
:101E800010029DF80320024490B24FF47A7290FB46
:101E9000F2F29A724FF47A7290FBF2F302FB1302A1
:101EA000642392FBF3F21A4B5A724FF47A7290FB4E
:101EB000F2F302FB1302642392FBF3F403FB1422FC
:101EC0000A2392FBF3F2124B1A724FF47A7290FBD0
:101ED000F2F302FB1302642392FBF3F403FB1422DC
:101EE0000A2392FBF3F403FB1422094BDA7104E09A
:101EF000481CC1B20529FFF6FFAE00BF0020024911
:101F00000860E8E6001001402C00002026000020B8
:101F10006C010020BC00002010B51048007801289A
:101F20000DD100F079F8FEF7EFFB01210C48FEF728
:101F30006FFAFEF7D3FA01200A4908700CE002217B
:101F40000748FEF765FA01210548FEF763FAFEF738
:101F500027FC00200349087010BD0000BC000020D1
:101F600000100140D800002010B50446012C10D10B
:101F700000201C49086000F041F800F047F800F02C
:101F80004BF8FEF7C1FBFEF7A9FA012016490870CD
:101F900026E002211548FEF73BFA01211348FEF71F
:101FA00039FAFEF7FDFB00200F498870C8700871F0
:101FB0000F4800780F4948710F48007888710C4825
:101FC000007800EB80000C49097801EB40000649DD
:101FD00048710020064908700749087002490870D6
:101FE00010BD00004C000020BC000020001001408B
:101FF0004A0000206C0100204900002000B512209A
:10200000FEF7BCFC1320FEF7B9FC00BD00B50420B0
:10201000FEF7B4FC00BD000000B50B48407948B1A4
:102020000520FEF7ABFC0620FEF7A8FC0720FEF714
:10203000A5FC08E00520FEF7BDFB0620FEF7BAFB75
:102040000720FEF7B7FB00BDBC00002000B5012152
:102050000620FFF709FE00BD10B58AB001208DF8FB
:1020600004001B208DF80500002406E00948015DEE
:10207000A01C01AA1154601CC4B21B2CF6DB1D214C
:1020800001A800F00BF900210620FFF7EDFD00206C
:102090000AB010BDD80000201CB50446012C00DD9C
:1020A000012402208DF8000001208DF801008DF838
:1020B000024003216846FFF76FFC00201CBD0000B2
:1020C00030490978D1B9F12807D0F22805D000218C
:1020D0002D4A11702B4A11707047F12803D1072146
:1020E0002A4A117002E02121284A117028490870FB
:1020F0000121254A1170234A117041E022490978D3
:10210000012917D1F12809D021490978F12905D1F0
:1021100000211D4A11701B4A1170DDE7F22809D019
:102120001B490978F22905D10021174A1170154A77
:102130001170D1E71649144A127888541249097867
:10214000491C114A117011460978104A12789142BF
:1021500016DB00210C4A11700A4A117001210D4A48
:10216000117000210C4A116000BF05E0084A525C62
:102170000A4B5A544A1CD1B2044A12789142F5DBF8
:1021800000BFA9E72100002022000020230000203A
:1021900080000020150000203000002058000020A2
:1021A00010B51F4800781F490978884211DC1E4885
:1021B0001B4A1278815C1D48FFF7C3FA40F2277171
:1021C0001A48FFF7D6F916480078401C14490870E1
:1021D0001DE01548124A1278815C1448FFF7B1FAE5
:1021E00040F227711148FFF7C4F900200C4908702C
:1021F00001200F490870002240F227710B48FFF7B9
:102200000AFA00200B49086002200B4908600448C4
:102210000078282802DD00200149087010BD000068
:102220001600002018000020F400002000440040A8
:1022300017000020300000201408014010B50020D5
:102240000849087008490870022008490860012000
:10225000FFF7CCFB012240F227710548FFF7DBF9BD
:1022600010BD0000170000201500002010080140DC
:102270000044004010B5FDF7DFFF4FF41650FDF7A6
:1022800099FF012240F225510348FFF7C4F90121CB
:102290000148FFF77DF910BD004400402DE9F041F1
:1022A00005460E46F2200F4908704870002408E0E9
:1022B000295D0C4AA01C1154285D3844C7B2601C2B
:1022C000C4B2B442F4DB0749A01C0F547E21054A76
:1022D000E01C1154301D04490870FFF7AFFF0120C6
:1022E000BDE8F081F400002018000020022806D18B
:1022F0000E49097819B102210D4A917014E00128A4
:1023000003D101210A4A91700EE0022803D1022173
:10231000074A917008E0032803D10321044A917011
:1023200002E00021024A9170704700004B0000203B
:10233000D8000020FA0ABC9E4ED6F68AFEDE0000C7
:102340006023000800000020580000004E1700081D
:10235000B823000858000020300500005E17000870
:10236000000000000102030401020304060708093B
:102370000204060800000000000000000000000049
:1023800000000000FFFF000000000000000000004F
:102390000000000001000102030405060708090A05
:1023A0000B0C0D0E0F1011121300000100000000A5
:0823B000000000000000000025
:0400000508000131BD
:00000001FF
