:020000040800F2
:100000009805002045010008810E0008C104000881
:100010007D0E0008C90200082B1500080000000032
:100020000000000000000000000000002110000897
:10003000CD02000800000000090F000805110008AB
:100040005F0100085F0100085F0100085F01000810
:100050005F0100085F0100085F0100085F01000800
:100060005F0100085F0100085F0100085F010008F0
:100070005F0100085F0100085F0100085F010008E0
:100080005F0100085F0100085F0100085F010008D0
:100090005F0100085F0100085F0100085F010008C0
:1000A0005F0100085F0100085F0100085F010008B0
:1000B000691100085F0100085F0100085F01000886
:1000C0005F0100085F0100085F0100085F01000890
:1000D0005F010008431300084B1300085F0100088C
:1000E0005F0100085F0100085F0100085F01000870
:1000F0005F0100085F0100085F0100085F01000860
:100100005F0100085F0100085F0100085F0100084F
:100110005F0100085F0100085F0100085F0100083F
:100120005F0100085F0100085F0100085F0100082F
:10013000DFF80CD000F018F800480047E11D000877
:10014000980500200648804706480047FEE7FEE77E
:10015000FEE7FEE7FEE7FEE7FEE7FEE7FEE7FEE777
:100160000911000831010008064C074D06E0E0685F
:1001700040F0010394E8070098471034AC42F6D3EE
:10018000FFF7DAFF242500084425000810B50024F5
:1001900040F22551064801F004F940B104480088B6
:1001A00000F0200018B10248001D0088C4B210BD44
:1001B000003801407FB5044600F03EF82546009522
:1001C0000020ADF80400ADF80600ADF80800ADF869
:1001D0000C000C20ADF80A006946024801F030F925
:1001E0007FBD00000044004010B5002440F22551BE
:1001F000104801F0D6F860B120210E4801F0C4F893
:10020000012806D10B4801F087F9C4B2204602F05C
:1002100093F840F22771074801F0C3F8012807D18D
:100220008021044801F0B0F8012801D102F0F6F86D
:1002300010BD0000004400401CB50121042000F066
:1002400075FE00214FF4003000F060FE01214804EB
:1002500000F05CFE26208DF8000000208DF80100E3
:1002600007208DF8020001208DF80300684600F099
:1002700009FE0420ADF8040018208DF807000320C3
:100280008DF8060001A90F4800F021F80820ADF80C
:10029000040004208DF8070001A90A4800F017F8AF
:1002A0000220ADF8040010208DF8070003208DF81F
:1002B000060001A9034800F00AF80221014800F0F5
:1002C0009AF81CBD0008014000BFFEE770472DE909
:1002D000F0410246002500260020002300240027CC
:1002E00091F803C00CF00F0591F803C00CF0100C4E
:1002F000BCF1000F03D091F802C04CEA050591F85B
:1003000000C0BCF1000F31D0146800202BE04FF08A
:10031000010C0CFA00F3B1F800C00CEA03069E428F
:1003200020D183004FF00F0C0CFA03F7BC4305FA01
:1003300003FC4CEA040491F803C0BCF1280F06D179
:100340004FF0010C0CFA00FCC2F814C00AE091F85E
:1003500003C0BCF1480F05D14FF0010C0CFA00FCB2
:10036000C2F810C0401C0828D1D31460B1F800C0F6
:10037000BCF1FF0F34DD546800202EE000F1080CC2
:100380004FF0010808FA0CF3B1F800C00CEA0306BC
:100390009E4221D183004FF00F0C0CFA03F7BC43AF
:1003A00005FA03FC4CEA040491F803C0BCF1280FE1
:1003B00005D100F1080C08FA0CF8C2F8148091F885
:1003C00003C0BCF1480F07D100F1080C4FF0010841
:1003D00008FA0CF8C2F81080401C0828CED35460EC
:1003E000BDE8F0810246002093680B400BB101206C
:1003F00000E00020704741617047016170470000D4
:1004000008B501211C2000F091FD4FF4E070ADF81B
:10041000000010208DF8030003208DF802006946CB
:100420002448FFF754FF0320ADF8000010208DF89A
:10043000030003208DF8020069461F48FFF747FFBD
:100440004FF46070ADF8000028208DF80300694675
:100450001948FFF73CFF4FF44070ADF8000028202A
:100460008DF8030069461548FFF731FF4FF480719E
:100470001048FFF7C2FF80210E48FFF7BEFF402162
:100480000C48FFF7BAFFC82001F04AFA522000F0EA
:10049000C7F8302000F0C4F8002000F0C1F80A20AE
:1004A00000F0BEF8022000F0BBF8062000F0B8F81B
:1004B00008BD0000000C0140001001400008014090
:1004C00000BFFEE710B5062000F04EFA01F03AFE3C
:1004D0000C2300220249034800F006F810BD00007A
:1004E000780100203D0000202DE9F05F05460E4612
:1004F000144698460F274FF000095EE064B9600685
:100500004FEA106B28782F490F5C3946584600F0A7
:10051000A5F8601CC4B26D1CECB1072C1BDC307854
:100520002949085C2978274A515C40EA010760069E
:100530004FEA106B3946584600F090F80120C0EBA6
:10054000440000F0FF0A3911504600F087F86D1C96
:10055000761C601CC4B2072C1DDD0C2C1BD030781F
:100560001949085C2978174A515C40EA01070120C3
:10057000C0EB440000F0FF0B3946584600F06EF81F
:1005800060064FEA106A3911504600F067F8761C91
:100590006D1C601CC4B20C2C0BD1287809490F5C6F
:1005A0000120C0EB440000F0FF0B3946584600F034
:1005B00055F809F1010000F0FF09C1459EDBBDE8D7
:1005C000F09F000064010020182500082DE9F0418B
:1005D00005460C4616464FF480711048FFF70BFF96
:1005E0000321A02000F05EF8A906080E062100F005
:1005F00059F8002706E02078082100F053F8641C21
:10060000781CC7B2B742F6DB4FF480710348FFF79E
:10061000F4FE012001F0A0F9BDE8F081000C0140DA
:1006200010B504464FF480710B48FFF7E4FE01203B
:1006300001F092F90421802000F034F808212046CE
:1006400000F030F84FF480710348FFF7D6FE012028
:1006500001F082F910BD0000000C014070B50546A4
:100660000C464FF480710E48FFF7C5FEA806050E34
:100670002007040E0321A02000F014F806212846CC
:1006800000F010F80421204600F00CF84FF48071BF
:100690000348FFF7B2FE012001F05EF970BD0000D3
:1006A000000C01402DE9F04104460D46802700264C
:1006B00019E080210E48FFF79EFE04EA070020B1F2
:1006C00040210B48FFF799FE03E040210848FFF75F
:1006D00092FE7F10012001F03FF980210448FFF7CE
:1006E0008CFE701CC6B2AE42E3DBBDE8F0810000B8
:1006F000000C014010B51048006840F6B83188423F
:1007000008D302210D48FFF776FE01210B48FFF7C1
:1007100074FE07E002210948FFF76FFE0121074838
:10072000FFF769FE0448006840F6B831884202D3FA
:1007300008460149086010BD540000200010014027
:1007400000201049087048708870C870087148719E
:100750008871C871087248728872C87208734873C9
:100760008873C8730874487488740749087048709F
:100770008870C870087148718871C87108724872B1
:1007800088727047640100207801002010B51022A3
:1007900002490020FFF71AFF10BD0000830100206E
:1007A000012805D16F49497821F001016D4A517046
:1007B000022805D16B49897821F00101694A9170BD
:1007C000032805D16749C97821F00101654AD17034
:1007D000042805D16349097921F00101614A1171A9
:1007E000052805D15F49497921F001015D4A517120
:1007F000062805D15B49897921F00101594A917197
:10080000072805D15749C97921F00101554AD1710D
:10081000082805D15349097A21F00101514A117282
:10082000092805D14F49497A21F001014D4A5172F9
:100830000A2805D14B49897A21F00101494A917270
:100840000B2805D14749C97A21F00101454AD172E7
:100850000C2805D14349497C21F00101414A5174DA
:100860004049897C3F4A527C11433E4A11730D280E
:1008700004D11146897C21F0080191743949897CA1
:10088000384A527C1143374A11730E2804D111465D
:10089000897C21F0040191743249897C314A527C6F
:1008A0001143304A11730F2804D11146897C21F07D
:1008B000020191742B49897C2A4A527C1143294AAE
:1008C0001173102804D11146097C21F0080111741C
:1008D0002449497B234A927B1143224AD27B11430C
:1008E000204A127C11431F4A1170112804D111466D
:1008F000C97B21F00401D1731A49497B194A927BC3
:100900001143184AD27B1143164A127C1143154AEF
:100910001170122804D11146897B21F002019173D4
:100920001049497B0F4A927B11430E4AD27B1143F7
:100930000C4A127C11430B4A1170132804D1114642
:10094000497B21F0010151730649497B054A927B9D
:100950001143044AD27B1143024A127C1143014ADB
:100960001170704764010020012802D10121534A0F
:100970005170022802D10121504A9170032802D1FE
:1009800001214E4AD170042802D101214B4A117134
:10099000052802D10121494A5171062802D10121BD
:1009A000464A9171072802D10121444AD171082891
:1009B00002D10121414A1172092802D101213F4A85
:1009C00051720A2802D101213C4A91720B2802D1AE
:1009D00001213A4AD1720C2802D10121374A5174BF
:1009E0003649897C354A527C1143344A11730D28AB
:1009F00001D1082191743149897C304A527C1143DC
:100A00002E4A11730E2801D1042191742B49897C3F
:100A10002A4A527C1143294A11730F2801D102211D
:100A200091742649897C254A527C1143234A1173CB
:100A3000102801D1082111742049497B1F4A927B5B
:100A400011431E4AD27B11431C4A127C11431B4A9C
:100A50001170112801D10421D1731849497B174A1B
:100A6000927B1143154AD27B1143144A127C1143E5
:100A7000124A1170122801D1022191730F49497B4A
:100A80000E4A927B11430D4AD27B11430B4A127CD2
:100A900011430A4A1170132801D1012151730749EA
:100AA000497B064A927B1143044AD27B1143034A95
:100AB000127C1143014A117070470000640100204C
:100AC00010B501F063FB00F005F94FF400717648B2
:100AD000FFF788FC00284DD174480078012849D1DF
:100AE0000A2000F01DFF4FF400716F48FFF77AFCF9
:100AF000002834D16E48007818BB6E480078401C3E
:100B00006C490870084600780A2804D10020087053
:100B100001206949087068480078012809D16548B2
:100B20000078032805DB0220624908700120624931
:100B3000087061480078614948715E4800788871A2
:100B40000DE05A484078022809D15848C07818B9B1
:100B500001205B49087002E000205949087000BF7D
:100B60004FF400715048FFF73DFC0028F8D00020FA
:100B7000544908604FF480714B48FFF733FC00285C
:100B80004DD14A480078012849D10A2000F0C8FE1A
:100B90004FF480714448FFF725FC30BB444800788F
:100BA00020BB45480078012808D14248007828B980
:100BB0000020414908700A203E4908703D480078ED
:100BC00048B13C480078002805DD3A480078401ECE
:100BD0003849087002E0002036490870364800782D
:100BE000364948713348007888710DE02F484078C5
:100BF000022809D12D48007918B90120324908701E
:100C000002E000203049087000BF4FF48071264890
:100C1000FFF7E8FB0028F8D000202A4908604FF4CD
:100C200080712A48FFF7DEFBE0BB204800780128EE
:100C300038D10A2000F074FE4FF480712348FFF78A
:100C4000D1FB00BB1A480078E8B11848807818B981
:100C500001201F4908701AE014488078012803D148
:100C600002201B49087012E010488078022803D146
:100C70000320174908700AE00C488078032803D144
:100C800001201349087002E000201149087000BFDC
:100C90004FF480710D48FFF7A5FB0028F8D0002025
:100CA0000849086010BD000000100140C800002085
:100CB0005300002051000020520000207801002045
:100CC0003C000020540000203A00002000080140B1
:100CD0003B00002010B560480078012872D15F48C1
:100CE000007805286FD2DFE800F003447E8BA20075
:100CF00080215B48FFF776FB70B9002059490870E6
:100D000059480088002803DD0420544908702FE06A
:100D10000220524908702BE053480088002827DD44
:100D200051480088401E5049088008460088F8B99C
:100D30004C48007802281BD100204C4908604C48E0
:100D4000007818B901204A4908700EE042484078FE
:100D5000012803D102204749087006E03E48407848
:100D6000022802D101204349087001203D49087042
:100D70006DE080213A48FFF735FB78BB3E4800889C
:100D8000401C3D49088008460088B0F5C87F03DA5A
:100D900002203449087025E032480078032813D037
:100DA000032030490870002030490860304908703D
:100DB0000220FFF7F5FC0320FFF7F2FC0120FFF70C
:100DC000D3FD0FE047E03EE02B480088B0F5C87F38
:100DD00008DB4FF4C8702849088003E0FFE70220D1
:100DE0001E49087033E080211D48FFF7FBFA18B157
:100DF00003201A49087002E001201849087026E013
:100E000080211748FFF7EEFA68B11B480088B0F55B
:100E1000C87F02DA0A201449088000201649088099
:100E20000E49087002E002200C4908700FE0802192
:100E30000B48FFF7D7FA28B101200A4908700020B3
:100E40000649087003E000200449087000BF00BF95
:100E5000642000F081FD10BDC80000205E0000206D
:100E600000100140580000206200002054000020C3
:100E700053000020390000206000002000BFFEE782
:100E80007047000070B5002100230F22C47804B31E
:100E9000154C246804F4E064C4F5E064210AC1F14F
:100EA0000403CA40447804FA03F1847814402143CF
:100EB00009010E4C0678A155047804F01F050124A1
:100EC000AC4005786D11AD0005F1E025C5F8004195
:100ED00009E0047804F01F050124AC40044D0678B5
:100EE000761145F8264070BD0CED00E000E400E00E
:100EF00080E100E002490143024A116070470000AE
:100F00000000FA050CED00E07047000029B1064A28
:100F1000D2690243044BDA6104E0034AD269824396
:100F2000014BDA61704700000010024029B1064A07
:100F300092690243044B9A6104E0034A9269824336
:100F4000014B9A61704700000010024030B500214B
:100F50000022002400232D4D6D6805F00C0121B105
:100F6000042905D0082923D105E0294D056022E098
:100F7000274D05601FE0254D6D6805F47012234D67
:100F80006D6805F48034022505EB92421CB9214DB1
:100F9000554305600BE01D4D6D6805F400351DB12E
:100FA0001C4D5543056002E0194D5543056002E0B4
:100FB000174D056000BF00BF144D6D6805F0F001CE
:100FC0000909154D6B5C0568DD4045600F4D6D6886
:100FD00005F4E061090A104D6B5C4568DD408560F1
:100FE0000A4D6D6805F46051C90A0B4D6B5C45688C
:100FF000DD40C560054D6D6805F44041890B074D26
:101000006B5CC568B5FBF3F5056130BD00100240AF
:1010100000127A0000093D000000002010000020AE
:10102000704710B500F002F810BD00000CB50020AC
:10103000019000903148006840F480302F490860EA
:1010400000BF2E48006800F4003000900198401C5A
:101050000190009818B90198B0F5A06FF1D1274818
:10106000006800F4003010B10120009001E0002081
:101070000090009801283FD12148006840F01000FE
:101080001F4908600846006820F003000860084611
:101090000068086019484068184948600846406878
:1010A00048600846406848600846406820F47C1064
:1010B00048600846406840F4981048600846006858
:1010C00040F08070086000BF0C48006800F00070BD
:1010D0000028F9D00948406820F00300074948601B
:1010E0000846406840F00200486000BF034840687E
:1010F00000F00C000828F9D10CBD000000100240DF
:10110000002002407047000010B51348006840F00E
:1011100001001149086008464068104908400E491E
:101120004860084600680E4908400B4908600846B8
:10113000006820F4802008600846406820F4FE0023
:1011400048604FF41F008860FFF76BFF4FF00060AE
:101150000449086010BD0000001002400000FFF8C4
:10116000FFFFF6FE08ED00E010B50121880700F052
:1011700041F818B312480068401C11490860114832
:101180000068401C20B10F480068401C0D490860F1
:101190000D480068401C20B10B480068401C0A49FB
:1011A00008600A480068401C20B108480068401CDC
:1011B000064908600121880700F00DF810BD000005
:1011C000540000202C0000203400002030000020BB
:1011D000CA4302827047CA430282704721B1028823
:1011E00042F00102028004E002884FF6FE731A40CA
:1011F0000280704730B50246002000230024158A83
:1012000005EA0103958905EA010413B10CB1012037
:1012100000E0002030BD1AB183890B43838102E0D6
:1012200083898B4383817047002202881D4B98423B
:101230000ED01D4B98420BD0B0F1804F08D01B4B05
:10124000984205D01A4B984202D01A4B984204D1CA
:101250004FF68F731A404B881A43174B984207D0AA
:10126000164B984204D04FF6FF431A40CB881A43DE
:1012700002808B8883850B8803850A4B98420BD0AC
:10128000094B984208D00E4B984205D00D4B98421E
:1012900002D00D4B984201D10B7A03860123838241
:1012A00070470000002C0140003401400004004061
:1012B00000080040000C00400010004000140040F6
:1012C0000040014000440140004801400EB50121AA
:1012D0000846FFF71BFE4FF47A70ADF80400472074
:1012E000ADF800000020ADF8020069464FF08040E4
:1012F000FFF79AFF01218807FFF76AFF01221146D5
:101300009007FFF788FF01218807FFF767FF00219B
:101310000120FFF7FBFD0EBD08B54FF4E060FFF7BD
:10132000E9FD1C208DF8000000208DF8010003204D
:101330008DF8020001208DF803006846FFF7A2FD3A
:1013400008BD10B5FEF722FF10BD10B5FEF74CFF2B
:1013500010BD10B50022002340F66A14A14200D14E
:1013600000BF0A1201249440A3B2DC43048010BDE4
:1013700021B1828942F40052828104E082894DF6D3
:10138000FF731A408281704702460020B1F5007F4A
:1013900000D100BF13880B400BB1012000E00020FA
:1013A000704770B50246002400230025002040F657
:1013B0006A16B14200D100BFC1F3421501F01F030C
:1013C000012606FA03F3012D02D19689334006E087
:1013D000022D02D1168A334001E0968A33400C1266
:1013E000012606FA04F41688344013B10CB101202A
:1013F00000E0002070BDF0B5034600240026002563
:10140000002040F66A17B94200D100BF1846C1F368
:10141000421401F01F06012707FA06F5012C01D13D
:101420000C3004E0022C01D1103000E014301AB16D
:1014300007682F43076002E00768AF430760F0BD0D
:101440002DE9F04786B005460E460024A24600BFAF
:10145000A1460027B08900B100BF2F462C8A4CF668
:10146000FF700440F08804432C82AC894EF6F310E0
:101470000440B08831890843718908430443AC8132
:10148000AC8A4FF6FF400440B0890443AC8201A807
:10149000FFF75CFD1F48874202D1DDF810A001E094
:1014A000DDF80CA0A88900F4004040B10AEBCA00A6
:1014B00000EB0A1031684900B0FBF1F807E00AEBD5
:1014C000CA0000EB0A1031688900B0FBF1F8642013
:1014D000B8FBF0F004012009642101FB1089A88900
:1014E00000F4004040B1322000EBC900B0FBF1F045
:1014F00000F00700044308E0322000EB09106421EB
:10150000B0FBF1F000F00F0004432C8106B0BDE801
:10151000F08700000038014001468888C0F30800C9
:101520007047C1F308028280704700BFFEE702E007
:1015300008C8121F08C1002AFAD17047704700205E
:1015400001E001C1121F002AFBD1704730B58BB0FA
:10155000D4480078002871D00020D249087000BF1C
:1015600005E0D149095C01AA1154411CC8B22828E0
:10157000F7DB002004E00021CB4A1154411CC8B223
:101580002828F8DB9DF80400F12875D19DF80500A6
:10159000F128FAD19DF806509DF80840A81E0628AB
:1015A00035D2DFE800F0030C131C252F1CB10120FD
:1015B000BE49087002E00020BC49087028E0012CF8
:1015C00001D0022C01D1B948447021E01CB10120A6
:1015D000B649C87002E00020B449C87018E01CB1D8
:1015E0000120B249087102E00020B04908710FE003
:1015F0000C2C03DC14B1AD48447102E00020AB496F
:10160000487105E0032C01DCA848847000E000BFAD
:1016100000BF00F0D3F9A648007800280DD1A548F6
:10162000007801280BD1FF20A24908700121022077
:1016300000F072FE0020A0490860A0E021E19D4872
:10164000007850B9FF209B4908700021022000F06B
:1016500063FE00209849086091E0984800780128CE
:101660000BD1FF20954908700121032000F054FEA2
:1016700000209149086082E082E0904800780228CA
:101680000AD1FF208D4908700221032000F044FE9A
:1016900000208949086072E08948007801280AD151
:1016A000FF20874908700121052000F035FE002049
:1016B0008149086063E08248007850B9FF20804982
:1016C00008700021052000F027FE00207A490860FC
:1016D00055E07C48007801280AD1FF20794908703C
:1016E0000121072000F018FE00207349086046E041
:1016F0007448007802280AD1FF207249087002213C
:10170000072000F009FE00206B49086037E06D48B3
:10171000007803280AD1FF206A49087003210720B6
:1017200000F0FAFD00206449086028E0664800786F
:1017300001280AD1FF20644908700121042000F02B
:10174000EBFD00205C49086019E05F48007850B963
:10175000FF205D4908700021042000F0DDFD00201D
:10176000554908600BE054480068B0F52F7F06D952
:101770000021012000F0D0FD00204F49086000BF8B
:101780009DF80400F2287CD19DF80500F22878D15C
:101790009DF81000000245490881084600899DF81F
:1017A00011100844414908819DF80E000002C880CC
:1017B0000846C0889DF80F1008443C49C8809DF831
:1017C000140000028881084680899DF8151008449D
:1017D000364988819DF812000002488108464089F8
:1017E0009DF813100844314948819DF81800000203
:1017F00008820846008A9DF8191008442B4908827F
:101800009DF816000002C8810846C0899DF817108F
:1018100008442649C8819DF81C00000288820846B9
:10182000808A9DF81D100844204988829DF81A007E
:10183000000248820846408A9DF81B1008441B4954
:1018400048829DF82000000208830846008B9DF81E
:1018500021100844154908839DF81E000002C88223
:101860000846C08A9DF81F1008441049C8829DF898
:10187000220088769DF8080008709DF809004870DD
:1018800000E00CE09DF80A0088709DF80B00C8701D
:101890009DF80C00087100F091F800F025FA0BB0EB
:1018A00030BD00001500002064000020C8000020AA
:1018B00019000020380000203000002039000020EE
:1018C0003A0000203B0000203C0000202DE9F041C0
:1018D00005460E460027F1200F4908704870002485
:1018E00008E0295D0C4AA01C1154285D3844C7B299
:1018F000601CC4B2B442F4DB0749A01C0F547E2123
:10190000054AE01C1154301D0449087000F0D4FD54
:101910000120BDE8F0810000000100201800002037
:10192000014642F228324A434FF0E0235A61002236
:101930009A6101221A6100BF4FF0E022106900F0A5
:1019400001021AB100F48032002AF5D000224FF0D3
:10195000E0231A619A617047014601EBC1024FF022
:10196000E0235A6100229A6101221A6100BF4FF000
:10197000E022106900F001021AB100F48032002A5E
:10198000F5D000224FF0E0231A619A617047000001
:10199000002004E00021074A1154411CC8B21C2851
:1019A000F8D3FF20044908700020024988760120FE
:1019B00008707047C8000020240000202DE9F0477F
:1019C000C44845788678C77890F80480447990F8C0
:1019D0000090B9F1000F03D0B9F1010F08D103E075
:1019E000002000F059FB04E0012000F055FB00E06E
:1019F00000BF00BF25B1012D03D0022D21D110E081
:101A000020E0B548007858B10220FEF7C9FE032057
:101A1000FEF7AAFF0120FEF7C3FE0120AD49487082
:101A200010E0AD48007858B10320FEF7B9FE012060
:101A3000FEF7B6FE0220FEF797FF0220A549487088
:101A400000E000BF00BF36B1012E11D0022E16D02B
:101A5000032E22D11AE00D20FEF7A2FE0E20FEF783
:101A60009FFE0F20FEF79CFE00209A49887015E02B
:101A70000D20FEF779FF0120964988700EE00E20B8
:101A8000FEF772FF02209349887007E00F20FEF7EF
:101A90006BFF03208F49887000E000BF00BF17B1C3
:101AA000012F0ED106E01020FEF77AFE00208949B2
:101AB000C87007E01020FEF757FF01208549C87065
:101AC00000E000BF00BFB8F1000F03D0B8F1010F74
:101AD0000ED106E01120FEF763FE00207D4908715B
:101AE00007E01120FEF740FF01207A49087100E06D
:101AF00000BF00BF7848007800286FD00D2C6ED250
:101B0000DFE804F0071728394A5B6E7F90A1B2C363
:101B1000D30000206F4948717048007870494871BF
:101B200070480078887100206C4908706D49087011
:101B3000CDE00120674948716848007868494871DC
:101B40006848007888710020644908700120654960
:101B50000870BCE002205F49487160480078604925
:101B6000487160480078887100205C490870022044
:101B70005C490870ABE0032056494871574800782B
:101B800057494871574800788871002053490870B8
:101B90000320544908709AE004204E4948714F4888
:101BA00000784F4948714F480078887100204B49B0
:101BB000087004204B49087089E0052045494871A8
:101BC00046480078464948714648007888710020A8
:101BD0004249087005204349087078E078E075E0D4
:101BE00006203C4948713D4800783D4948713D48D0
:101BF000007888710020394908700620394908703A
:101C000065E0072033494871344800783449487109
:101C10003448007888710020304908700720314925
:101C2000087054E008202B4948712C4800782C4952
:101C300048712C48007888710020284908700820D5
:101C40002849087043E00920224948712348007858
:101C50002349487123480078887100201F49087083
:101C600009202049087032E00A201A4948711B48AF
:101C700000781B4948711B4800788871012017497A
:101C8000087000201749087021E00B2011494871A5
:101C90001248007812494871124800788871012072
:101CA0000E4908700F49087011E00C20094948716D
:101CB0000A4800780A4948710A480078887101206A
:101CC0000649087002200749087000E000BF00BF05
:101CD000BDE8F087C800002053000020520000201B
:101CE00078010020510000202DE9F0412E48867E29
:101CF00000273146002000F059F8054615B10B20A9
:101D0000FEF732FE15B90B20FEF74AFD012446E02E
:101D10003146204600F04AF810B3052C18D2DFE80F
:101D200004F00F0307130B000A20FEF71DFE10E05E
:101D30000920FEF719FE0CE00820FEF715FE08E06A
:101D40000B20FEF711FE04E00C20FEF70DFE00E074
:101D500000BF00BF3220FFF7E3FDFEF7B3FB1CE03E
:101D6000052C18D2DFE804F00F0307130B000A203C
:101D7000FEF716FD10E00920FEF712FD0CE008202A
:101D8000FEF70EFD08E00B20FEF70AFD04E00C2034
:101D9000FEF706FD00E000BF00BF601CC4B2052CCA
:101DA000B6DDBDE8F0810000C80000200246012039
:101DB000904008407047000039B1084A927E0123E4
:101DC00083401A43054B9A7606E0044A927E01232B
:101DD00083409A43014B9A7670470000E40000204C
:101DE0000EB5FEF70DFBFFF771FAFFF795FA01212B
:101DF0000846FFF78BF802219648FEF7FCFA01210E
:101E00009448FEF7FAFAFEF79BFCFEF7BFFC32207F
:101E1000FFF786FDFFF7BCFD00F06AFB4FF47A7018
:101E20008D4908604FF42F708C49086011E1FEF76E
:101E300047FE00F01BF9FFF789FB87480068B0F503
:101E40007A7FF3D90021FDE085480078052803DB7F
:101E50000120834A107004E081480078401C804AC9
:101E600010707F4800787F4A10717D4800780628FE
:101E700063D2DFE800F0620316293C4F7A48C0883D
:101E800000128DF80000784880798DF801007648BE
:101E9000008900128DF802007348007A8DF8030063
:101EA0004CE07148408900128DF800006E48807A3D
:101EB0008DF801006C48808900128DF802006A4894
:101EC000007B8DF8030039E06748C08900128DF867
:101ED00000006548807B8DF801006348008A00128D
:101EE0008DF802006048007C8DF8030026E05E4813
:101EF000408A00128DF800005B48807C8DF801005C
:101F00005948808A00128DF802005748007D8DF8EC
:101F1000030013E05448C08A00128DF800005248B4
:101F2000807D8DF801005048008B00128DF8020072
:101F30004D48007E8DF8030000E000BF00BF9DF813
:101F4000000048B99DF8010030B99DF8020018B9A9
:101F50009DF8030000B973E09DF8002010029DF881
:101F60000120024490B24FF47A7290FBF2F23D4BA2
:101F70001A704FF47A7290FBF2F302FB130264239F
:101F800092FBF3F2374B5A704FF47A7290FBF2F3F4
:101F900002FB1302642392FBF3F403FB14220A23D3
:101FA00092FBF3F22F4B9A704FF47A7290FBF2F39C
:101FB00002FB1302642392FBF3F403FB14220A23B3
:101FC00092FBF3F403FB1422264BDA709DF80220F7
:101FD00010029DF80320024490B24FF47A7290FBF5
:101FE000F2F29A724FF47A7290FBF2F302FB130250
:101FF000642392FBF3F21B4B5A724FF47A7290FBFC
:10200000F2F302FB1302642392FBF3F403FB1422AA
:102010000A2392FBF3F2134B1A724FF47A7290FB7D
:10202000F2F302FB1302642392FBF3F403FB14228A
:102030000A2392FBF3F403FB14220A4BDA7104E047
:10204000481CC1B20529FFF6FFAE00BF00200249BF
:102050000860ECE6001001402C0000203000002059
:102060002600002078010020C800002010B5084894
:102070000078012805D1FEF725FA012005490870EE
:1020800004E0FEF783FB00200249087010BD000049
:10209000C8000020E400002010B50446012C0ED139
:1020A00000201B49086000F03FF800F045F8FEF7FB
:1020B00021FBFEF707FA01201649087026E00221ED
:1020C0001548FEF798F901211348FEF796F9FEF737
:1020D0005DFB00200F498870C87008710F480078B8
:1020E0000F4948710F48007888710C48007800EB60
:1020F00080000C49097801EB400006494871002036
:1021000006490870074908700249087010BD0000B0
:1021100054000020C80000200010014052000020A0
:10212000780100205100002000B51220FEF71CFCB1
:102130001320FEF719FC00BD00B50420FEF714FCC7
:1021400000BD000000B50E48407928B90D48007860
:102150000D490978084448B10520FEF705FC062022
:10216000FEF702FC0720FEF7FFFB08E00520FEF764
:1021700017FB0620FEF714FB0720FEF711FB00BD3E
:10218000C8000020510000205200002010B5574820
:102190000078052877D2DFE800F003396C7B9300E4
:1021A0004FF400715248FEF71DF970B900205149F3
:1021B000087051480088002803DD04204B4908704E
:1021C00023E00220494908701FE04B48008800289E
:1021D0001BDD49480088401E4749088008460088A2
:1021E00098B94448007802280FD10020434908607C
:1021F0004348007818B901204249087002E00020E5
:102200004049087001203B4908706AE04FF40071B2
:102210003748FEF7E7F840BB3B480088401C3A4986
:10222000088008460088B0F5C87F03DA02203149EB
:1022300008701DE02F48007803280CD003202D499A
:10224000087000202D4908602D48007801280FD122
:1022500000F05CF80CE02C480088B0F5C87F07DB84
:102260004FF4C8702849088002E002201F49087016
:1022700037E04FF400711E48FEF7B4F820B1032098
:102280001A49087003E028E001201849087028E086
:102290004FF400711648FEF7A5F868B11A48008897
:1022A000B0F5C87F02DA0A201349088000201649D9
:1022B00008800E49087002E002200C49087010E006
:1022C0004FF400710A48FEF78DF828B10120094942
:1022D000087000200549087003E0002003490870D9
:1022E00000BF00BF6420FFF737FB10BD590000207E
:1022F00000080140580000205C000020540000202D
:10230000C8000020380000205A00002000B501213C
:102310000620FFF751FD00BD7CB505460C468DF843
:10232000005001208DF801008DF80240032168461D
:10233000FFF7CCFA00207CBD31490978D1B9F128EA
:1023400007D0F22805D000212E4A11702C4A1170B6
:102350007047F12803D107212B4A117002E0212197
:10236000294A1170294908700121264A1170244A0E
:10237000117043E023490978012917D1F12809D0C8
:1023800022490978F12905D100211E4A11701C4A01
:102390001170DDE7F22809D01C490978F22905D12E
:1023A0000021184A1170164A1170D1E71749154AD1
:1023B0001278885413490978491C124A1170114641
:1023C0000978114A1278914218DB00220D4B1A70DD
:1023D0000B4B1A7001220E4B1A7000220D4B1A6023
:1023E000002100BF05E0094A525C0B4B5A544A1CBD
:1023F000D1B2054A12789142F5DB00BF00BFA7E7D2
:102400002100002022000020230000208C0000205A
:1024100015000020340000206400002010B51F4883
:1024200000781F490978884211DC1E481B4A12783F
:10243000815C1D48FFF775F840F227711A48FEF7D6
:1024400088FF16480078401C144908701DE01548A4
:10245000124A1278815C1448FFF763F840F2277142
:102460001148FEF776FF00200C49087001200F4943
:102470000870002240F227710B48FEF7BCFF0020D5
:102480000B49086002200B4908600448007828289E
:1024900002DD00200149087010BD00001600002078
:1024A0001800002000010020004400401700002018
:1024B000340000201408014010B5002008490870BD
:1024C000084908700220084908600120FFF728FA2F
:1024D000012240F227710548FEF78DFF10BD000074
:1024E00017000020150000201008014000440040A3
:1024F00010B5FDF7A1FE4FF41650FDF75BFE01226B
:1025000040F225510348FEF776FF01210148FEF70E
:102510002FFF10BD00440040FA0ABC9E4ED6F68A3A
:10252000FEDE0000442500080000002064000000DA
:102530002E150008A82500086400002034050000BE
:102540003E1500080000000001020304010203041C
:102550000607080902040608000000000000000049
:102560000000000000000000FFFF0000000000006D
:10257000000000000000000000000000FFFFFFFF5F
:10258000FF000102030405060708090A0B0C0D0EE3
:102590000F101112130000010000000000000000E5
:0825A000000000000000000033
:0400000508000131BD
:00000001FF
