:020000040800F2
:100000007005002045010008410D0008D9040008D2
:100010003D0D0008C90200082F170008000000006D
:100020000000000000000000000000003D12000879
:10003000CD02000800000000E10D000821130008B7
:100040005F0100085F0100085F0100085F01000810
:100050005F0100085F0100085F0100085F01000800
:100060005F0100085F0100085F0100085F010008F0
:100070005F0100085F0100085F0100085F010008E0
:100080005F0100085F0100085F0100085F010008D0
:100090005F0100085F0100085F0100085F010008C0
:1000A0005F0100085F0100085F0100085F010008B0
:1000B000851300085F0100085F0100085F01000868
:1000C0005F0100085F0100085F0100085F01000890
:1000D0005F010008471500084F1500085F01000880
:1000E0005F0100085F0100085F0100085F01000870
:1000F0005F0100085F0100085F0100085F01000860
:100100005F0100085F0100085F0100085F0100084F
:100110005F0100085F0100085F0100085F0100083F
:100120005F0100085F0100085F0100085F0100082F
:10013000DFF80CD000F018F8004800473D1C00081C
:10014000700500200648804706480047FEE7FEE7A6
:10015000FEE7FEE7FEE7FEE7FEE7FEE7FEE7FEE777
:100160002513000831010008064C074D06E0E06841
:1001700040F0010394E8070098471034AC42F6D3EE
:10018000FFF7DAFF642200088422000810B500247B
:1001900040F22551064801F006FA40B104480088B3
:1001A00000F0200018B10248001D0088C4B210BD44
:1001B000003801407FB5044600F03EF82546009522
:1001C0000020ADF80400ADF80600ADF80800ADF869
:1001D0000C000C20ADF80A006946024801F032FA22
:1001E0007FBD00000044004010B5002440F22551BE
:1001F000104801F0D8F960B120210E4801F0C6F98D
:10020000012806D10B4801F089FAC4B2204601F05A
:100210000BFF40F22771074801F0C5F9012807D10B
:100220008021044801F0B2F9012801D101F072FFE8
:1002300010BD0000004400401CB50121042000F066
:1002400083FF00214FF4003000F06EFF01214804CD
:1002500000F06AFF26208DF8000000208DF80100D4
:1002600007208DF8020001208DF80300684600F099
:1002700069FD0420ADF8040018208DF80700032064
:100280008DF8060001A90F4800F02EF80820ADF8FF
:10029000040004208DF8070001A90A4800F024F8A2
:1002A0000220ADF8040010208DF8070003208DF81F
:1002B000060001A9034800F017F80221014800F0E8
:1002C000A7F81CBD0008014000BFFEE77047000012
:1002D000012803D10121034AD17002E00021014A23
:1002E000D1707047BC0000202DE9F0410246002586
:1002F0000026002000230024002791F803C00CF002
:100300000F0591F803C00CF0100CBCF1000F03D0E6
:1003100091F802C04CEA050591F800C0BCF1000F4D
:1003200031D0146800202BE04FF0010C0CFA00F3E0
:10033000B1F800C00CEA03069E4220D183004FF0C2
:100340000F0C0CFA03F7BC4305FA03FC4CEA040457
:1003500091F803C0BCF1280F06D14FF0010C0CFA44
:1003600000FCC2F814C00AE091F803C0BCF1480FC9
:1003700005D14FF0010C0CFA00FCC2F810C0401C73
:100380000828D1D31460B1F800C0BCF1FF0F34DDF0
:10039000546800202EE000F1080C4FF0010808FA24
:1003A0000CF3B1F800C00CEA03069E4221D1830091
:1003B0004FF00F0C0CFA03F7BC4305FA03FC4CEAB0
:1003C000040491F803C0BCF1280F05D100F1080C1A
:1003D00008FA0CF8C2F8148091F803C0BCF1480F79
:1003E00007D100F1080C4FF0010808FA0CF8C2F828
:1003F0001080401C0828CED35460BDE8F08102462E
:10040000002093680B400BB1012000E000207047F2
:10041000416170470161704708B501211C2000F05F
:1004200093FE4FF4E070ADF8000010208DF803004B
:1004300003208DF8020069462448FFF755FF03208A
:10044000ADF8000010208DF8030003208DF80200A5
:1004500069461F48FFF748FF4FF46070ADF8000091
:1004600028208DF8030069461948FFF73DFF4FF437
:100470004070ADF8000028208DF80300694615484B
:10048000FFF732FF4FF480711048FFF7C3FF802160
:100490000E48FFF7BFFF40210C48FFF7BBFFC82005
:1004A00001F07AFA522000F0C5F8302000F0C2F8CE
:1004B000002000F0BFF80A2000F0BCF8022000F095
:1004C000B9F8062000F0B6F808BD0000000C0140A5
:1004D000001001400008014000BFFEE710B50620F3
:1004E00000F04CFA0C2300220249034800F006F801
:1004F00010BD000050010020350000202DE9F05F04
:1005000005460E46144698460F274FF000095EE058
:1005100064B960064FEA106B28782F490F5C3946A2
:10052000584600F0A5F8601CC4B26D1CECB1072C55
:100530001BDC30782949085C2978274A515C40EA5D
:10054000010760064FEA106B3946584600F090F8F4
:100550000120C0EB440000F0FF0A3911504600F0C2
:1005600087F86D1C761C601CC4B2072C1DDD0C2C9A
:100570001BD030781949085C2978174A515C40EA49
:1005800001070120C0EB440000F0FF0B394658463C
:1005900000F06EF860064FEA106A3911504600F01C
:1005A00067F8761C6D1C601CC4B20C2C0BD128782B
:1005B00009490F5C0120C0EB440000F0FF0B3946F5
:1005C000584600F055F809F1010000F0FF09C14557
:1005D0009EDBBDE8F09F00003C010020582200088F
:1005E0002DE9F04105460C4616464FF4807110483F
:1005F000FFF70EFF0321A02000F05EF8A906080E09
:10060000062100F059F8002706E02078082100F0C4
:1006100053F8641C781CC7B2B742F6DB4FF4807104
:100620000348FFF7F7FE012001F0D2F9BDE8F081A1
:10063000000C014010B504464FF480710B48FFF7E1
:10064000E7FE012001F0C4F90421802000F034F815
:100650000821204600F030F84FF480710348FFF77E
:10066000D9FE012001F0B4F910BD0000000C0140DA
:1006700070B505460C464FF480710E48FFF7C8FE72
:10068000A806050E2007040E0321A02000F014F890
:100690000621284600F010F80421204600F00CF84E
:1006A0004FF480710348FFF7B5FE012001F090F987
:1006B00070BD0000000C01402DE9F04104460D46DC
:1006C0008027002619E080210E48FFF7A1FE04EAEA
:1006D000070020B140210B48FFF79CFE03E04021BA
:1006E0000848FFF795FE7F10012001F071F9802185
:1006F0000448FFF78FFE701CC6B2AE42E3DBBDE8D4
:10070000F0810000000C014010B51048006840F670
:10071000B831884208D302210D48FFF779FE012144
:100720000B48FFF777FE07E002210948FFF772FE4A
:1007300001210748FFF76CFE0448006840F6B83115
:10074000884202D308460149086010BD4C000020D1
:100750000010014000201049087048708870C8706F
:10076000087148718871C871087248728872C872BD
:10077000087348738873C873087448748874074989
:10078000087048708870C870087148718871C871A5
:1007900008724872887270473C01002050010020A6
:1007A00010B5102202490020FFF71AFF10BD00000B
:1007B0005B010020012805D16F49497821F0010132
:1007C0006D4A5170022805D16B49897821F00101E9
:1007D000694A9170032805D16749C97821F0010160
:1007E000654AD170042805D16349097921F00101D6
:1007F000614A1171052805D15F49497921F001014C
:100800005D4A5171062805D15B49897921F00101C2
:10081000594A9171072805D15749C97921F0010139
:10082000554AD171082805D15349097A21F00101AF
:10083000514A1172092805D14F49497A21F0010125
:100840004D4A51720A2805D14B49897A21F001019C
:10085000494A91720B2805D14749C97A21F0010113
:10086000454AD1720C2805D14349497C21F0010148
:10087000414A51744049897C3F4A527C11433E4A67
:1008800011730D2804D11146897C21F0080191745F
:100890003949897C384A527C1143374A11730E28F2
:1008A00004D11146897C21F0040191743249897C7C
:1008B000314A527C1143304A11730F2804D111463A
:1008C000897C21F0020191742B49897C2A4A527C4F
:1008D0001143294A1173102804D11146097C21F0D3
:1008E000080111742449497B234A927B1143224A0F
:1008F000D27B1143204A127C11431F4A11701128E8
:1009000004D11146C97B21F00401D1731A49497BF6
:10091000194A927B1143184AD27B1143164A127C22
:100920001143154A1170122804D11146897B21F018
:10093000020191731049497B0F4A927B11430E4A81
:10094000D27B11430C4A127C11430B4A11701328BD
:1009500004D11146497B21F0010151730649497BBD
:10096000054A927B1143044AD27B1143024A127C0E
:100970001143014A117070473C010020012802D147
:100980000121534A5170022802D10121504A91702D
:10099000032802D101214E4AD170042802D101213D
:1009A0004B4A1171052802D10121494A517106288B
:1009B00002D10121464A9171072802D10121444AFE
:1009C000D171082802D10121414A1172092802D1AE
:1009D00001213F4A51720A2802D101213C4A9172F9
:1009E0000B2802D101213A4AD1720C2802D10121EF
:1009F000374A51743649897C354A527C1143344A0E
:100A000011730D2801D1082191743149897C304A34
:100A1000527C11432E4A11730E2801D10421917486
:100A20002B49897C2A4A527C1143294A11730F2889
:100A300001D1022191742649897C254A527C1143B7
:100A4000234A1173102801D1082111742049497BD0
:100A50001F4A927B11431E4AD27B11431C4A127CCF
:100A600011431B4A1170112801D10421D173184977
:100A7000497B174A927B1143154AD27B1143144A92
:100A8000127C1143124A1170122801D10221917374
:100A90000F49497B0E4A927B11430D4AD27B114389
:100AA0000B4A127C11430A4A1170132801D101210B
:100AB00051730749497B064A927B1143044AD27B12
:100AC0001143034A127C1143014A11707047000020
:100AD0003C01002010B54FF400718148FFF78FFCF6
:100AE000002857D17F480078012853D10A2000F010
:100AF00053FF4FF400717A48FFF781FC00283ED184
:100B00007948007868BB79480078401C77490870BC
:100B1000084600780A2804D1002008700120744992
:100B2000087073480078012809D1704800780328BC
:100B300005DB02206D49087001206D4908706C4882
:100B400000786C4948716948007888716848007875
:100B500000EB80006549097801EB4000614948716C
:100B60000DE060484078022809D15E48C07818B985
:100B70000120FFF7ADFB02E00020FFF7A9FB00BF5B
:100B80004FF400715648FFF73AFC0028F8D00020D7
:100B9000594908604FF480715148FFF730FC002834
:100BA00059D150480078012855D10A2000F0F4FEB0
:100BB0004FF480714A48FFF722FC002840D14A4890
:100BC000007870BB4A480078012808D1474800786F
:100BD00028B90020464908700A2044490870434853
:100BE000007848B141480078002805DD3F4800788A
:100BF000401E3E49087002E000203C4908703C4815
:100C000000783C4948713948007888713848007844
:100C100000EB80003549097801EB4000314948710B
:100C20000EE0FFE72F484078022809D12D480079CF
:100C300018B9012000F0C8F802E0002000F0C4F864
:100C400000BF4FF480712648FFF7D9FB0028F8D089
:100C50000020294908604FF480712848FFF7CFFB36
:100C6000E0BB20480078012838D10A2000F094FE2B
:100C70004FF480712148FFF7C2FB00BB1A4800788F
:100C8000E8B11848807818B9012001F0C1FA1AE0DB
:100C900014488078012803D1022001F0B9FA12E04B
:100CA00010488078022803D1032001F0B1FA0AE04D
:100CB0000C488078032803D1012001F0A9FA02E052
:100CC000002001F0A5FA00BF4FF480710B48FFF738
:100CD00096FB0028F8D000200749086010BD0000EE
:100CE00000100140BC0000204B0000204900002003
:100CF0004A000020500100204C0000200008014064
:100D000010B50446022C01D10B494870012C02D1C8
:100D1000012009494870032C08D10220FFF74AFD41
:100D20000320FFF747FD0120FFF728FE042C01D127
:100D300001F060F910BD0000BC00002000BFFEE71C
:100D40007047000070B5002100230F22C47804B35F
:100D5000154C246804F4E064C4F5E064210AC1F190
:100D60000403CA40447804FA03F184781440214310
:100D700009010E4C0678A155047804F01F050124E2
:100D8000AC4005786D11AD0005F1E025C5F80041D6
:100D900009E0047804F01F050124AC40044D0678F6
:100DA000761145F8264070BD0CED00E000E400E04F
:100DB00080E100E002490143024A116070470000EF
:100DC0000000FA050CED00E0012803D10121034ADF
:100DD000117102E00021014A11717047BC0000202E
:100DE0007047000010B562480078012876D161484C
:100DF0000078052873D2DFE800F00348828FA50051
:100E000080215D48FFF7FBFA70B900205B4908704C
:100E10005B480088002803DD04205649087033E051
:100E20000220544908702FE05548008800282BDD27
:100E300053480088401E524908800846008818BB65
:100E40004E48007802281FD100204E4908604E48C5
:100E5000007818B901204C49087012E044484078E5
:100E6000012803D10220FFF74BFF0AE040484078F9
:100E7000022803D10120FFF743FF02E00220FFF721
:100E80003FFF01203D4908706CE080213A48FFF7A0
:100E9000B6FA78BB3D480088401C3C4908800846AB
:100EA0000088B0F5C87F03DA02203449087025E0D5
:100EB00032480078032813D00320304908700020FE
:100EC00030490860304908700220FFF773FC0320A6
:100ED000FFF770FC0120FFF751FD0FE046E03DE019
:100EE0002A480088B0F5C87F08DB4FF4C87027494E
:100EF000088003E0FFE702201E49087032E08021ED
:100F00001D48FFF77CFA18B103201A49087002E067
:100F100001201849087025E080211748FFF76FFA73
:100F200060B11A480088C82802DA0A2014490880EB
:100F30000020164908800F49087002E002200D4980
:100F400008700FE080210C48FFF759FA28B1012002
:100F50000A49087000200749087003E0002005498D
:100F6000087000BF00BF642000F032FD10BD00001B
:100F7000BC0000205600002000100140540000205A
:100F8000520000204C0000204B00002050000020A8
:100F900010B55D480078052874D2DFE800F00343FF
:100FA00079879E004FF400715848FFF728FA70B90E
:100FB00000205749087057480088002803DD0420A6
:100FC000514908702DE002204F49087029E051482E
:100FD0000088002825DD4F480088401E4D490880C4
:100FE00008460088E8B94A480078022819D100204C
:100FF000494908604948007818B9012047490870F4
:1010000002E00020454908704548007818B10020EA
:101010004349087002E001204149087001203C4921
:1010200008706BE04FF400713848FFF7E8F950BBE7
:101030003C480088401C3B49088008460088B0F5C1
:10104000C87F03DA02203249087020E03048007877
:1010500003280DD003202E49087000202E49086077
:101060002E480078012812D10420FFF749FE0EE037
:101070002C480088B0F5C87F09DB4FF4C8702949B7
:10108000088004E036E0FFE702201F49087035E0E1
:101090004FF400711D48FFF7B2F918B103201A4947
:1010A000087002E001201849087027E04FF4007131
:1010B0001648FFF7A4F960B11A480088C82802DA78
:1010C0000A20144908800020164908800E4908703B
:1010D00002E002200C49087010E04FF400710B4848
:1010E000FFF78DF928B10120094908700020064951
:1010F000087003E000200449087000BF00BF6420AE
:1011000000F066FC10BD0000550000200008014002
:1011100054000020520000204C000020BC000020A1
:10112000340000205000002029B1064AD269024351
:10113000044BDA6104E0034AD2698243014BDA616D
:10114000704700000010024029B1064A926902432C
:10115000044B9A6104E0034A92698243014B9A610D
:10116000704700000010024030B50021002200242A
:1011700000232D4D6D6805F00C0121B1042905D027
:10118000082923D105E0294D056022E0274D05609F
:101190001FE0254D6D6805F47012234D6D6805F450
:1011A0008034022505EB92421CB9214D5543056060
:1011B0000BE01D4D6D6805F400351DB11C4D554308
:1011C000056002E0194D5543056002E0174D0560CA
:1011D00000BF00BF144D6D6805F0F0010909154D01
:1011E0006B5C0568DD4045600F4D6D6805F4E0619E
:1011F000090A104D6B5C4568DD4085600A4D6D68DD
:1012000005F46051C90A0B4D6B5C4568DD40C56053
:10121000054D6D6805F44041890B074D6B5CC56851
:10122000B5FBF3F5056130BD0010024000127A00F5
:1012300000093D000000002010000020704710B59C
:1012400000F002F810BD00000CB5002001900090E5
:101250003148006840F480302F49086000BF2E48B4
:10126000006800F4003000900198401C0190009844
:1012700018B90198B0F5A06FF1D12748006800F4C3
:10128000003010B10120009001E000200090009893
:1012900001283FD12148006840F010001F49086034
:1012A0000846006820F003000860084600680860EF
:1012B0001948406818494860084640684860084630
:1012C000406848600846406820F47C104860084642
:1012D000406840F4981048600846006840F080700C
:1012E000086000BF0C48006800F000700028F9D0CA
:1012F0000948406820F003000749486008464068F4
:1013000040F00200486000BF0348406800F00C0055
:101310000828F9D10CBD0000001002400020024056
:101320007047000010B51348006840F001001149F3
:10133000086008464068104908400E494860084661
:1013400000680E4908400B4908600846006820F410
:10135000802008600846406820F4FE0048604FF492
:101360001F008860FFF76BFF4FF0006004490860C2
:1013700010BD0000001002400000FFF8FFFFF6FE65
:1013800008ED00E010B50121880700F035F8D0B174
:101390000D480068401C0C4908600C480068401C5F
:1013A00020B10A480068401C0849086008480068E5
:1013B000401C20B106480068401C05490860012116
:1013C000880700F00AF810BD4C0000202C00002017
:1013D00030000020CA4302827047CA43028270472D
:1013E00021B1028842F00102028004E002884FF637
:1013F000FE731A400280704730B502460020002379
:101400000024158A05EA0103958905EA010413B150
:101410000CB1012000E0002030BD1AB183890B43DC
:10142000838102E083898B43838170470022028895
:101430001D4B98420ED01D4B98420BD0B0F1804FFF
:1014400008D01B4B984205D01A4B984202D01A4B39
:10145000984204D14FF68F731A404B881A43174BAA
:10146000984207D0164B984204D04FF6FF431A40DB
:10147000CB881A4302808B8883850B8803850A4BAF
:1014800098420BD0094B984208D00E4B984205D099
:101490000D4B984202D00D4B984201D10B7A038636
:1014A0000123838270470000002C0140003401407A
:1014B0000004004000080040000C00400010004004
:1014C0000014004000400140004401400048014039
:1014D0000EB501210846FFF727FE4FF47A70ADF8EC
:1014E00004004720ADF800000020ADF80200694676
:1014F0004FF08040FFF79AFF01218807FFF76AFF4E
:10150000012211469007FFF788FF01218807FFF7A6
:1015100067FF00210120FFF707FE0EBD08B54FF45D
:10152000E060FFF747FC1C208DF8000000208DF8DC
:10153000010003208DF8020001208DF803006846A9
:10154000FFF700FC08BD10B5FEF720FE10BD10B57A
:10155000FEF74AFE10BD10B50022002340F66A14C3
:10156000A14200D100BF0A1201249440A3B2DC437F
:10157000048010BD21B1828942F40052828104E0CE
:1015800082894DF6FF731A4082817047024600201F
:10159000B1F5007F00D100BF13880B400BB10120D3
:1015A00000E00020704770B50246002400230025AB
:1015B000002040F66A16B14200D100BFC1F34215C7
:1015C00001F01F03012606FA03F3012D02D19689CB
:1015D000334006E0022D02D1168A334001E0968A9C
:1015E00033400C12012606FA04F41688344013B175
:1015F0000CB1012000E0002070BDF0B503460024CE
:1016000000260025002040F66A17B94200D100BF2D
:101610001846C1F3421401F01F06012707FA06F528
:10162000012C01D10C3004E0022C01D1103000E07B
:1016300014301AB107682F43076002E00768AF4310
:101640000760F0BD2DE9F04786B005460E46002440
:10165000A24600BFA1460027B08900B100BF2F46B7
:101660002C8A4CF6FF700440F08804432C82AC892D
:101670004EF6F3100440B08831890843718908435D
:101680000443AC81AC8A4FF6FF400440B089044368
:10169000AC8201A8FFF768FD1F48874202D1DDF840
:1016A00010A001E0DDF80CA0A88900F4004040B1D2
:1016B0000AEBCA0000EB0A1031684900B0FBF1F8F0
:1016C00007E00AEBCA0000EB0A1031688900B0FBA2
:1016D000F1F86420B8FBF0F004012009642101FB5B
:1016E0001089A88900F4004040B1322000EBC90005
:1016F000B0FBF1F000F00700044308E0322000EBFB
:1017000009106421B0FBF1F000F00F0004432C81BC
:1017100006B0BDE8F0870000003801400146888827
:10172000C0F308007047C1F308028280704700BF11
:10173000FEE702E008C8121F08C1002AFAD170476C
:101740007047002001E001C1121F002AFBD1704741
:1017500000B58BB07648007800282FD0002074495F
:10176000087000BF05E07349095C01AA1154411CCF
:10177000C8B22828F7DB002004E000216D4A11548C
:10178000411CC8B22828F8DB9DF80400F12821D1BB
:101790009DF80500F1281DD167480078012819D16E
:1017A0009DF80600012809D164480078012806D177
:1017B000FF2062490870012000F022FCB5E05F487C
:1017C00000780028FAD1FF205C490870002000F062
:1017D00017FCAAE09DF80400F228EFD19DF805005F
:1017E000F228EBD10120544908709DF81000000246
:1017F00053490881084600899DF811100844504952
:1018000008819DF80E000002C8800846C0889DF837
:101810000F1008444A49C8809DF8140000028881CE
:10182000084680899DF815100844454988819DF82F
:10183000120000024881084640899DF813100844B0
:101840003F4948819DF81800000208820846008A36
:101850009DF8191008443A4908829DF816000002C4
:10186000C8810846C0899DF8171008443449C881CA
:101870009DF81C00000288820846808A9DF81D1091
:1018800008442F4988829DF81A00000248820846C1
:10189000408A9DF81B100844294948829DF8200081
:1018A000000208830846008B9DF821100844244953
:1018B00008839DF81E000002C8820846C08A9DF871
:1018C0001F1008441E49C8829DF8220088769DF8A2
:1018D000080008709DF8090048709DF80A0088709B
:1018E0009DF80B00C8709DF80C0008719DF80D0064
:1018F000487114480078FF2805D00846007811493F
:10190000097888420DD00E48007818B9002000F000
:10191000FFFA02E0012000F0FBFA094800780949CB
:10192000087000F087F800F00DF90BB000BD000062
:10193000150000205800002019000020340000206D
:10194000BC000020240000202DE9F04105460E4691
:10195000F1200F4908704870002408E0295D0C4A06
:10196000A01C1154285D3844C7B2601CC4B2B442F4
:10197000F4DB0749A01C0F547E21054AE01C1154DA
:10198000301D0449087000F013FC0120BDE8F0810F
:10199000D800002018000020014642F228324A43B5
:1019A0004FF0E0235A6100229A6101221A6100BFC0
:1019B0004FF0E022106900F001021AB100F4803209
:1019C000002AF5D000224FF0E0231A619A61704797
:1019D000014601EBC1024FF0E0235A6100229A61F7
:1019E00001221A6100BF4FF0E022106900F00102ED
:1019F0001AB100F48032002AF5D000224FF0E02323
:101A00001A619A6170470000002004E00021074A33
:101A10001154411CC8B21C28F8D3FF200449087097
:101A2000002002498876012008707047BC00002021
:101A30002400002070B5414846788378C478057941
:101A400026B1012E03D0022E21D110E020E03C4827
:101A5000007858B10220FEF7ADFE0320FEF78EFF9E
:101A60000120FEF7A7FE01203449487010E03448F9
:101A7000007858B10320FEF79DFE0120FEF79AFE84
:101A80000220FEF77BFF02202C49487000E000BFD7
:101A900000BF33B1012B11D0022B16D0032B22D162
:101AA0001AE00D20FEF786FE0E20FEF783FE0F20C3
:101AB000FEF780FE00202149887015E00D20FEF71A
:101AC0005DFF01201D4988700EE00E20FEF756FFD5
:101AD00002201A49887007E00F20FEF74FFF03200D
:101AE0001649887000E000BF00BF14B1012C0ED170
:101AF00006E01020FEF75EFE00201049C87007E0E7
:101B00001020FEF73BFF01200C49C87000E000BF29
:101B100000BF15B1012D0ED106E01120FEF74AFEDF
:101B200000200649087107E01120FEF727FF00207A
:101B30000249087100E000BF00BF70BDBC0000207A
:101B40004B0000202DE9F0412E48867E00273146CB
:101B5000002000F059F8054615B10B20FEF70EFFE6
:101B600015B90B20FEF726FE012446E0314620463B
:101B700000F04AF810B3052C18D2DFE804F00F0388
:101B800007130B000A20FEF7F9FE10E00920FEF70C
:101B9000F5FE0CE00820FEF7F1FE08E00B20FEF752
:101BA000EDFE04E00C20FEF7E9FE00E000BF00BF00
:101BB0003220FFF7F1FEFEF791FC1CE0052C18D255
:101BC000DFE804F00F0307130B000A20FEF7F2FD15
:101BD00010E00920FEF7EEFD0CE00820FEF7EAFD1C
:101BE00008E00B20FEF7E6FD04E00C20FEF7E2FD26
:101BF00000E000BF00BF601CC4B2052CB6DDBDE82C
:101C0000F0810000BC000020024601209040084006
:101C10007047000039B1084A927E012383401A437D
:101C2000054B9A7606E0044A927E012383409A434C
:101C3000014B9A7670470000BC0000200EB5FEF7FD
:101C4000EBFBFFF745FCFFF769FC01210846FFF7B6
:101C50006BFA02219648FEF7DBFB01219448FEF760
:101C6000D9FBFEF777FDFEF79BFD3220FFF794FED0
:101C7000FFF7CAFE00F0B8FA4FF47A708D49086099
:101C800015E1FFF785F9FEF725FFFFF7ABF800F048
:101C900019F9FFF75DFD87480068B0F57A7FEFD945
:101CA0000021FDE084480078052803DB0120824AFA
:101CB000107004E080480078401C7F4A10707E4815
:101CC00000787E4A10717C480078062863D2DFE8ED
:101CD00000F0620316293C4F7948C08800128DF845
:101CE0000000774880798DF801007548008900125E
:101CF0008DF802007248007A8DF803004CE07048BD
:101D0000408900128DF800006D48807A8DF801003E
:101D10006B48808900128DF802006948007B8DF8BD
:101D2000030039E06648C08900128DF8000064485D
:101D3000807B8DF801006248008A00128DF8020055
:101D40005F48007C8DF8030026E05D48408A001261
:101D50008DF800005A48807C8DF801005848808A30
:101D600000128DF802005648007D8DF8030013E044
:101D70005348C08A00128DF800005148807D8DF8CC
:101D800001004F48008B00128DF802004C48007E85
:101D90008DF8030000E000BF00BF9DF8000048B9C7
:101DA0009DF8010030B99DF8020018B99DF80300B4
:101DB00000B973E09DF8002010029DF80120024454
:101DC00090B24FF47A7290FBF2F23C4B1A704FF4DF
:101DD0007A7290FBF2F302FB1302642392FBF3F29C
:101DE000364B5A704FF47A7290FBF2F302FB1302F7
:101DF000642392FBF3F403FB14220A2392FBF3F215
:101E00002E4B9A704FF47A7290FBF2F302FB13029E
:101E1000642392FBF3F403FB14220A2392FBF3F4F2
:101E200003FB1422254BDA709DF8022010029DF866
:101E30000320024490B24FF47A7290FBF2F29A724D
:101E40004FF47A7290FBF2F302FB1302642392FBCD
:101E5000F3F21A4B5A724FF47A7290FBF2F302FBD0
:101E60001302642392FBF3F403FB14220A2392FB74
:101E7000F3F2124B1A724FF47A7290FBF2F302FBF8
:101E80001302642392FBF3F403FB14220A2392FB54
:101E9000F3F403FB1422094BDA7104E0481CC1B2CD
:101EA0000529FFF6FFAE00BF002002490860E8E602
:101EB000001001402C0000202500002050010020CF
:101EC000BC00002010B51048007801280DD100F0AA
:101ED00077F8FEF719FC01210C48FEF799FAFEF796
:101EE000FDFA0120084908700CE002210748FEF7BE
:101EF0008FFA01210548FEF78DFAFEF751FC00200C
:101F00000149087010BD0000BC0000200010014015
:101F100010B50446012C10D100201C49086000F0C7
:101F200041F800F047F800F04BF8FEF7EDFBFEF744
:101F3000D5FA01201649087026E002211548FEF75F
:101F400067FA01211348FEF765FAFEF729FC002025
:101F50000F498870C87008710F4800780F494871A0
:101F60000F48007888710C48007800EB80000C491D
:101F7000097801EB400006494871002006490870C5
:101F8000074908700249087010BD00004C0000208D
:101F9000BC000020001001404A0000205001002039
:101FA0004900002000B51220FEF7E8FC1320FEF7E0
:101FB000E5FC00BD00B50420FEF7E0FC00BD00001C
:101FC00000B50B48407948B10520FEF7D7FC062044
:101FD000FEF7D4FC0720FEF7D1FC08E00520FEF751
:101FE000E9FB0620FEF7E6FB0720FEF7E3FB00BD5A
:101FF000BC00002000B501210620FFF70BFE00BD4C
:102000001CB50446012C00DD012402208DF80000DF
:1020100001208DF801008DF8024003216846FFF78A
:1020200093FC00201CBD000033490978E1B9F12878
:1020300007D0F22805D00021304A11702E4A1170C5
:102040007047F12803D107212D4A117002E02121A8
:102050002B4A11702B49294A127888540121274AAA
:102060001170254A117044E024490978012917D1DB
:10207000F12809D023490978F12905D100211F4A07
:1020800011701D4A1170DBE7F22809D01D4909784B
:10209000F22905D10021194A1170174A1170CFE7B2
:1020A0001849164A1278885414490978491C134A69
:1020B000117011460978124A1278914219DB0021F9
:1020C0000E4A11700C4A117001210F4A1170002143
:1020D0000E4A116000BF08E00A4A525C0C4B5A5489
:1020E0000022084B5A544A1CD1B2054A1278914238
:1020F000F2DB00BFA4E70000210000202200002046
:102100002300002080000020150000203000002067
:102110005800002010B51F4800781F4909788842F0
:1021200011DC1E481B4A1278815C1D48FFF7FBFA40
:1021300040F227711A48FFF70EFA16480078401C43
:10214000144908701DE01548124A1278815C144841
:10215000FFF7E9FA40F227711148FFF7FCF9002078
:102160000C49087001200F490870002240F22771C5
:102170000B48FFF742FA00200B49086002200B4988
:10218000086004480078282802DD00200149087012
:1021900010BD00001600002018000020D80000200C
:1021A00000440040170000203000002014080140C7
:1021B00010B5002008490870084908700220084935
:1021C00008600120FFF7E8FB012240F22771054873
:1021D000FFF713FA10BD00001700002015000020C3
:1021E000100801400044004010B5FEF725F84FF4F8
:1021F0001650FDF7DFFF012240F225510348FFF79B
:10220000FCF901210148FFF7B5F910BD0044004079
:10221000022806D10E49097819B102210D4A9170A0
:1022200014E0012803D101210A4A91700EE002282E
:1022300003D10221074A917008E0032803D103214A
:10224000044A917002E00021024A91707047000038
:102250004B000020BC000020FA0ABC9E4ED6F68A35
:10226000FEDE00008422000800000020580000006C
:1022700032170008DC220008580000201805000072
:1022800042170008000000000102030401020304D9
:10229000060708090204060800000000000000000C
:1022A0000000000000000000FF000000000000002F
:1022B0000000000000000000FF000102030405060A
:1022C0000708090A0B0C0D0E0F1011121300000164
:0C22D00000000000000000000000000002
:0400000508000131BD
:00000001FF
