:020000040800F2
:100000009005002045010008F10E0008D904000801
:10001000ED0E0008C90200089B1500080000000052
:10002000000000000000000000000000A91000080F
:10003000CD02000800000000910F00088D1100089B
:100040005F0100085F0100085F0100085F01000810
:100050005F0100085F0100085F0100085F01000800
:100060005F0100085F0100085F0100085F010008F0
:100070005F0100085F0100085F0100085F010008E0
:100080005F0100085F0100085F0100085F010008D0
:100090005F0100085F0100085F0100085F010008C0
:1000A0005F0100085F0100085F0100085F010008B0
:1000B000F11100085F0100085F0100085F010008FE
:1000C0005F0100085F0100085F0100085F01000890
:1000D0005F010008B3130008BB1300085F010008AC
:1000E0005F0100085F0100085F0100085F01000870
:1000F0005F0100085F0100085F0100085F01000860
:100100005F0100085F0100085F0100085F0100084F
:100110005F0100085F0100085F0100085F0100083F
:100120005F0100085F0100085F0100085F0100082F
:10013000DFF80CD000F018F800480047CD1C00088C
:10014000900500200648804706480047FEE7FEE786
:10015000FEE7FEE7FEE7FEE7FEE7FEE7FEE7FEE777
:100160009111000831010008064C074D06E0E068D7
:1001700040F0010394E8070098471034AC42F6D3EE
:10018000FFF7DAFF002500082025000810B500243D
:1001900040F22551064801F03CF940B1044800887E
:1001A00000F0200018B10248001D0088C4B210BD44
:1001B000003801407FB5044600F03EF82546009522
:1001C0000020ADF80400ADF80600ADF80800ADF869
:1001D0000C000C20ADF80A006946024801F068F9ED
:1001E0007FBD00000044004010B5002440F22551BE
:1001F000104801F00EF960B120210E4801F0FCF822
:10020000012806D10B4801F0BFF9C4B2204602F024
:1002100035F840F22771074801F0FBF8012807D1B3
:100220008021044801F0E8F8012801D102F098F893
:1002300010BD0000004400401CB50121042000F066
:10024000B9FE00214FF4003000F0A4FE0121480463
:1002500000F0A0FE26208DF8000000208DF801009F
:1002600007208DF8020001208DF80300684600F099
:1002700041FE0420ADF8040018208DF8070003208B
:100280008DF8060001A90F4800F02EF80820ADF8FF
:10029000040004208DF8070001A90A4800F024F8A2
:1002A0000220ADF8040010208DF8070003208DF81F
:1002B000060001A9034800F017F80221014800F0E8
:1002C000A7F81CBD0008014000BFFEE77047000012
:1002D000012803D10121034AD17002E00021014A23
:1002E000D1707047DC0000202DE9F0410246002566
:1002F0000026002000230024002791F803C00CF002
:100300000F0591F803C00CF0100CBCF1000F03D0E6
:1003100091F802C04CEA050591F800C0BCF1000F4D
:1003200031D0146800202BE04FF0010C0CFA00F3E0
:10033000B1F800C00CEA03069E4220D183004FF0C2
:100340000F0C0CFA03F7BC4305FA03FC4CEA040457
:1003500091F803C0BCF1280F06D14FF0010C0CFA44
:1003600000FCC2F814C00AE091F803C0BCF1480FC9
:1003700005D14FF0010C0CFA00FCC2F810C0401C73
:100380000828D1D31460B1F800C0BCF1FF0F34DDF0
:10039000546800202EE000F1080C4FF0010808FA24
:1003A0000CF3B1F800C00CEA03069E4221D1830091
:1003B0004FF00F0C0CFA03F7BC4305FA03FC4CEAB0
:1003C000040491F803C0BCF1280F05D100F1080C1A
:1003D00008FA0CF8C2F8148091F803C0BCF1480F79
:1003E00007D100F1080C4FF0010808FA0CF8C2F828
:1003F0001080401C0828CED35460BDE8F08102462E
:10040000002093680B400BB1012000E000207047F2
:10041000416170470161704708B501211C2000F05F
:10042000C9FD4FF4E070ADF8000010208DF8030016
:1004300003208DF8020069462448FFF755FF03208A
:10044000ADF8000010208DF8030003208DF80200A5
:1004500069461F48FFF748FF4FF46070ADF8000091
:1004600028208DF8030069461948FFF73DFF4FF437
:100470004070ADF8000028208DF80300694615484B
:10048000FFF732FF4FF480711048FFF7C3FF802160
:100490000E48FFF7BFFF40210C48FFF7BBFFC82005
:1004A00001F0CCF9522000F0C7F8302000F0C4F879
:1004B000002000F0C1F80A2000F0BEF8022000F091
:1004C000BBF8062000F0B8F808BD0000000C0140A1
:1004D000001001400008014000BFFEE710B50620F3
:1004E00000F04EFA01F09EFD0C2300220249034861
:1004F00000F006F810BD000070010020350000205B
:100500002DE9F05F05460E46144698460F274FF03A
:1005100000095EE064B960064FEA106B28782F4945
:100520000F5C3946584600F0A5F8601CC4B26D1C3B
:10053000ECB1072C1BDC30782949085C2978274A64
:10054000515C40EA010760064FEA106B3946584695
:1005500000F090F80120C0EB440000F0FF0A3911D0
:10056000504600F087F86D1C761C601CC4B2072C46
:100570001DDD0C2C1BD030781949085C2978174AEE
:10058000515C40EA01070120C0EB440000F0FF0B82
:100590003946584600F06EF860064FEA106A391185
:1005A000504600F067F8761C6D1C601CC4B20C2C21
:1005B0000BD1287809490F5C0120C0EB440000F002
:1005C000FF0B3946584600F055F809F1010000F0DC
:1005D000FF09C1459EDBBDE8F09F00005C010020E3
:1005E000F42400082DE9F04105460C4616464FF468
:1005F00080711048FFF70CFF0321A02000F05EF887
:10060000A906080E062100F059F8002706E0207818
:10061000082100F053F8641C781CC7B2B742F6DB1F
:100620004FF480710348FFF7F5FE012001F022F935
:10063000BDE8F081000C014010B504464FF4807114
:100640000B48FFF7E5FE012001F014F9042180209A
:1006500000F034F80821204600F030F84FF48071A3
:100660000348FFF7D7FE012001F004F910BD000098
:10067000000C014070B505460C464FF480710E48E1
:10068000FFF7C6FEA806050E2007040E0321A020D2
:1006900000F014F80621284600F010F80421204646
:1006A00000F00CF84FF480710348FFF7B3FE01200F
:1006B00001F0E0F870BD0000000C01402DE9F041B0
:1006C00004460D468027002619E080210E48FFF7DA
:1006D0009FFE04EA070020B140210B48FFF79AFE75
:1006E00003E040210848FFF793FE7F10012001F04E
:1006F000C1F880210448FFF78DFE701CC6B2AE42DF
:10070000E3DBBDE8F0810000000C014010B51048AB
:10071000006840F6B831884208D302210D48FFF73F
:1007200077FE01210B48FFF775FE07E0022109481B
:10073000FFF770FE01210748FFF76AFE04480068D2
:1007400040F6B831884202D308460149086010BD1E
:100750004C00002000100140002010490870487033
:100760008870C870087148718871C87108724872C1
:100770008872C872087348738873C87308744874A1
:1007800088740749087048708870C870087148718B
:100790008871C87108724872887270475C010020C5
:1007A0007001002010B5102202490020FFF71AFF47
:1007B00010BD00007B010020012805D16F49497858
:1007C00021F001016D4A5170022805D16B498978E9
:1007D00021F00101694A9170032805D16749C97860
:1007E00021F00101654AD170042805D163490979D6
:1007F00021F00101614A1171052805D15F4949794C
:1008000021F001015D4A5171062805D15B498979C2
:1008100021F00101594A9171072805D15749C97939
:1008200021F00101554AD171082805D15349097AAF
:1008300021F00101514A1172092805D14F49497A25
:1008400021F001014D4A51720A2805D14B49897A9C
:1008500021F00101494A91720B2805D14749C97A13
:1008600021F00101454AD1720C2805D14349497C48
:1008700021F00101414A51744049897C3F4A527C30
:1008800011433E4A11730D2804D11146897C21F091
:10089000080191743949897C384A527C1143374A9E
:1008A00011730E2804D11146897C21F00401917442
:1008B0003249897C314A527C1143304A11730F28E6
:1008C00004D11146897C21F0020191742B49897C65
:1008D0002A4A527C1143294A1173102804D1114627
:1008E000097C21F0080111742449497B234A927B39
:1008F0001143224AD27B1143204A127C11431F4AE2
:100900001170112804D11146C97B21F00401D17363
:100910001A49497B194A927B1143184AD27B1143E9
:10092000164A127C1143154A1170122804D111463F
:10093000897B21F0020191731049497B0F4A927B18
:1009400011430E4AD27B11430C4A127C11430B4ACD
:100950001170132804D11146497B21F00101517314
:100960000649497B054A927B1143044AD27B1143D5
:10097000024A127C1143014A117070475C01002049
:10098000012802D10121534A5170022802D10121CC
:10099000504A9170032802D101214E4AD170042897
:1009A00002D101214B4A1171052802D10121494A86
:1009B0005171062802D10121464A9171072802D1BE
:1009C0000121444AD171082802D10121414A117202
:1009D000092802D101213F4A51720A2802D101217E
:1009E0003C4A91720B2802D101213A4AD1720C285B
:1009F00002D10121374A51743649897C354A527CEB
:100A00001143344A11730D2801D1082191743149E1
:100A1000897C304A527C11432E4A11730E2801D131
:100A2000042191742B49897C2A4A527C1143294A1A
:100A300011730F2801D1022191742649897C254A1E
:100A4000527C1143234A1173102801D108211174DB
:100A50002049497B1F4A927B11431E4AD27B114396
:100A60001C4A127C11431B4A1170112801D1042128
:100A7000D1731849497B174A927B1143154AD27B9F
:100A80001143144A127C1143124A1170122801D1E9
:100A9000022191730F49497B0E4A927B11430D4A03
:100AA000D27B11430B4A127C11430A4A117013285E
:100AB00001D1012151730749497B064A927B1143B9
:100AC000044AD27B1143034A127C1143014A11703C
:100AD000704700005C01002010B501F0C7FA00F07B
:100AE0001DF94FF400717648FFF789FC00284DD1BD
:100AF00074480078012849D10A2000F09FFE4FF485
:100B000000716F48FFF77BFC002834D16E480078F5
:100B100018BB6E480078401C6C4908700846007885
:100B20000A2804D10020087001206949087068482B
:100B30000078012809D165480078032805DB0220E8
:100B40006249087001206249087061480078614973
:100B500048715E48007888710DE05A484078022854
:100B600009D15848C07818B90120FFF7B1FB02E05D
:100B70000020FFF7ADFB00BF4FF400715048FFF7B6
:100B80003EFC0028F8D00020534908604FF48071E3
:100B90004B48FFF734FC00284DD14A480078012823
:100BA00049D10A2000F04AFE4FF480714448FFF713
:100BB00026FC30BB4448007820BB4548007801281B
:100BC00008D14248007828B90020414908700A201D
:100BD0003E4908703D48007848B13C4800780028FC
:100BE00005DD3A480078401E3849087002E00020D0
:100BF00036490870364800783649487133480078DD
:100C000088710DE02F484078022809D12D480079DD
:100C100018B9012000F0B0F902E0002000F0ACF9B2
:100C200000BF4FF480712648FFF7E9FB0028F8D099
:100C30000020294908604FF480712848FFF7DFFB46
:100C4000E0BB20480078012838D10A2000F0F6FDEA
:100C50004FF480712148FFF7D2FB00BB1A4800789F
:100C6000E8B11848807818B9012001F01FFC1AE09B
:100C700014488078012803D1022001F017FC12E00B
:100C800010488078022803D1032001F00FFC0AE00D
:100C90000C488078032803D1012001F007FC02E012
:100CA000002001F003FC00BF4FF480710B48FFF7F8
:100CB000A6FB0028F8D000200749086010BD0000FE
:100CC00000100140C00000204B000020490000201F
:100CD0004A000020700100204C0000200008014064
:100CE00010B50446022C01D10B494870012C02D1E9
:100CF000012009494870032C08D10220FFF75CFD50
:100D00000320FFF759FD0120FFF73AFE042C01D123
:100D100001F07AFA10BD0000DC00002010B5684830
:100D2000007801287ED16748007805287BD2DFE86B
:100D300000F003528D9AB10080216348FFF75FFBFA
:100D400070B900206149087061480088002803DDFF
:100D500004205C4908703DE002205A49087039E0DF
:100D60005B480088002835DD59480088401E5849F6
:100D700008800846008868BB54480078022829D1BA
:100D80000020544908605448007868B953480078F6
:100D900000EB80005249097801EB4000514948714D
:100DA00001204D49087012E045484078012803D1E0
:100DB0000220FFF795FF0AE041484078022803D15E
:100DC0000120FFF78DFF02E00220FFF789FF0120DD
:100DD0003E4908706EE080213B48FFF710FB80BB66
:100DE00041480088401C4049088008460088B0F50A
:100DF000C87F03DA02203549087026E033480078BE
:100E0000032814D0032031490870002031490860BC
:100E1000314908700220FFF7CFFC0320FFF7CCFC1C
:100E2000012001E04AE041E0FFF7AAFD0DE02E4875
:100E30000088B0F5C87F08DB4FF4C8702A490880E5
:100E400003E0FFE702201F49087033E080211E48BD
:100E5000FFF7D5FA18B103201A49087002E0012003
:100E60001849087026E080211748FFF7C8FA68B1D2
:100E70001D480088B0F5C87F02DA0A2014490880AE
:100E80000020194908800F49087002E002200D492E
:100E900008700FE080210C48FFF7B1FA28B101205B
:100EA0000A49087000200749087003E0002005493E
:100EB000087000BF00BF642000F0DCFC10BD000023
:100EC000C00000205600002000100140500000200B
:100ED0005A0000204C0000204B0000204A00002057
:100EE00049000020DC0000205800002000BFFEE781
:100EF0007047000070B5002100230F22C47804B3AE
:100F0000154C246804F4E064C4F5E064210AC1F1DE
:100F10000403CA40447804FA03F18478144021435E
:100F200009010E4C0678A155047804F01F05012430
:100F3000AC4005786D11AD0005F1E025C5F8004124
:100F400009E0047804F01F050124AC40044D067844
:100F5000761145F8264070BD0CED00E000E400E09D
:100F600080E100E002490143024A1160704700003D
:100F70000000FA050CED00E0012803D10121034A2D
:100F8000117102E00021014A11717047DC0000205C
:100F90007047000029B1064AD2690243044BDA6166
:100FA00004E0034AD2698243014BDA6170470000D2
:100FB0000010024029B1064A92690243044B9A612B
:100FC00004E0034A92698243014B9A617047000032
:100FD0000010024030B500210022002400232D4DD6
:100FE0006D6805F00C0121B1042905D0082923D131
:100FF00005E0294D056022E0274D05601FE0254DE5
:101000006D6805F47012234D6D6805F48034022577
:1010100005EB92421CB9214D554305600BE01D4D77
:101020006D6805F400351DB11C4D5543056002E0A7
:10103000194D5543056002E0174D056000BF00BF24
:10104000144D6D6805F0F0010909154D6B5C0568DC
:10105000DD4045600F4D6D6805F4E061090A104DF3
:101060006B5C4568DD4085600A4D6D6805F4605134
:10107000C90A0B4D6B5C4568DD40C560054D6D6868
:1010800005F44041890B074D6B5CC568B5FBF3F572
:10109000056130BD0010024000127A0000093D00D9
:1010A0000000002010000020704710B500F002F88A
:1010B00010BD00000CB50020019000903148006880
:1010C00040F480302F49086000BF2E48006800F4CB
:1010D000003000900198401C0190009818B90198C8
:1010E000B0F5A06FF1D12748006800F4003010B1CE
:1010F0000120009001E000200090009801283FD1DD
:101100002148006840F010001F4908600846006848
:1011100020F003000860084600680860194840682D
:10112000184948600846406848600846406848607A
:101130000846406820F47C1048600846406840F447
:10114000981048600846006840F08070086000BF52
:101150000C48006800F000700028F9D00948406889
:1011600020F00300074948600846406840F002004C
:10117000486000BF0348406800F00C000828F9D11F
:101180000CBD00000010024000200240704700002B
:1011900010B51348006840F0010011490860084686
:1011A0004068104908400E494860084600680E49EA
:1011B00008400B4908600846006820F48020086059
:1011C0000846406820F4FE0048604FF41F00886025
:1011D000FFF76BFF4FF000600449086010BD00008E
:1011E000001002400000FFF8FFFFF6FE08ED00E0EF
:1011F00010B50121880700F035F8D0B10D4800681E
:10120000401C0C4908600C480068401C20B10A488A
:101210000068401C0849086008480068401C20B16C
:1012200006480068401C054908600121880700F055
:101230000AF810BD4C0000202C00002030000020D7
:10124000CA4302827047CA430282704721B10288B2
:1012500042F00102028004E002884FF6FE731A4059
:101260000280704730B50246002000230024158A12
:1012700005EA0103958905EA010413B10CB10120C7
:1012800000E0002030BD1AB183890B43838102E066
:1012900083898B4383817047002202881D4B9842CB
:1012A0000ED01D4B98420BD0B0F1804F08D01B4B95
:1012B000984205D01A4B984202D01A4B984204D15A
:1012C0004FF68F731A404B881A43174B984207D03A
:1012D000164B984204D04FF6FF431A40CB881A436E
:1012E00002808B8883850B8803850A4B98420BD03C
:1012F000094B984208D00E4B984205D00D4B9842AE
:1013000002D00D4B984201D10B7A038601238382D0
:1013100070470000002C01400034014000040040F0
:1013200000080040000C0040001000400014004085
:101330000040014000440140004801400EB5012139
:101340000846FFF727FE4FF47A70ADF804004720F7
:10135000ADF800000020ADF8020069464FF0804073
:10136000FFF79AFF01218807FFF76AFF0122114664
:101370009007FFF788FF01218807FFF767FF00212B
:101380000120FFF707FE0EBD08B54FF4E060FFF740
:10139000E9FD1C208DF8000000208DF801000320DD
:1013A0008DF8020001208DF803006846FFF7A2FDCA
:1013B00008BD10B5FEF7EAFE10BD10B5FEF714FF2C
:1013C00010BD10B50022002340F66A14A14200D1DE
:1013D00000BF0A1201249440A3B2DC43048010BD74
:1013E00021B1828942F40052828104E082894DF663
:1013F000FF731A408281704702460020B1F5007FDA
:1014000000D100BF13880B400BB1012000E0002089
:10141000704770B50246002400230025002040F6E6
:101420006A16B14200D100BFC1F3421501F01F039B
:10143000012606FA03F3012D02D19689334006E016
:10144000022D02D1168A334001E0968A33400C12F5
:10145000012606FA04F41688344013B10CB10120B9
:1014600000E0002070BDF0B50346002400260025F2
:10147000002040F66A17B94200D100BF1846C1F3F8
:10148000421401F01F06012707FA06F5012C01D1CD
:101490000C3004E0022C01D1103000E014301AB1FD
:1014A00007682F43076002E00768AF430760F0BD9D
:1014B0002DE9F04786B005460E460024A24600BF3F
:1014C000A1460027B08900B100BF2F462C8A4CF6F8
:1014D000FF700440F08804432C82AC894EF6F31070
:1014E0000440B08831890843718908430443AC81C2
:1014F000AC8A4FF6FF400440B0890443AC8201A897
:10150000FFF768FD1F48874202D1DDF810A001E017
:10151000DDF80CA0A88900F4004040B10AEBCA0035
:1015200000EB0A1031684900B0FBF1F807E00AEB64
:10153000CA0000EB0A1031688900B0FBF1F86420A2
:10154000B8FBF0F004012009642101FB1089A8898F
:1015500000F4004040B1322000EBC900B0FBF1F0D4
:1015600000F00700044308E0322000EB091064217A
:10157000B0FBF1F000F00F0004432C8106B0BDE891
:10158000F08700000038014001468888C0F3080059
:101590007047C1F308028280704700BFFEE702E097
:1015A00008C8121F08C1002AFAD1704770470020EE
:1015B00001E001C1121F002AFBD1704700B58BB0BA
:1015C00081480078002838D000207F49087000BF8B
:1015D00005E07E49095C01AA1154411CC8B22828C3
:1015E000F7DB7A4800791B2802D10120784908707E
:1015F0009DF80400F12830D19DF80500F1282CD188
:1016000073480078012828D19DF80600012814D1DC
:1016100070480078FF2805D06E4800786E49097838
:10162000884217D06C480078012807D16A480078B2
:1016300068490870012000F00DFEC3E0664800789C
:101640000028FAD16448007862490870002000F050
:1016500001FEB7E000F0DEFDB4E09DF80400F228E2
:10166000EBD19DF80500F228E7D101205849087018
:101670009DF81000000259490881084600899DF82C
:1016800011100844554908819DF80E000002C880D9
:101690000846C0889DF80F1008445049C8809DF83E
:1016A000140000028881084680899DF815100844BE
:1016B0004A4988819DF81200000248810846408905
:1016C0009DF813100844454948819DF81800000210
:1016D00008820846008A9DF8191008443F4908828C
:1016E0009DF816000002C8810846C0899DF81710B1
:1016F00008443A49C8819DF81C00000288820846C7
:10170000808A9DF81D100844344988829DF81A008B
:10171000000248820846408A9DF81B1008442F4961
:1017200048829DF82000000208830846008B9DF83F
:1017300021100844294908839DF81E000002C88230
:101740000846C08A9DF81F1008442449C8829DF8A5
:10175000220088769DF8080008709DF809004870FE
:101760009DF80A0088709DF80B00C8709DF80C0069
:1017700008719DF80D00487119480078FF2805D0C0
:10178000084600781649097888420DD01348007839
:1017900018B9002000F0F0FB02E0012000F0ECFBA3
:1017A0000E4800780E49087000F096F800F012FA22
:1017B000002005E00949095C0A4A1154411CC8B2DD
:1017C0000728F7DB0BB000BD150000205C000020EF
:1017D000190000202500002034000020C000002057
:1017E00024000020DC0000202DE9F04105460E46D3
:1017F0000027F1200F4908704870002408E0295D97
:101800000C4AA01C1154285D3844C7B2601CC4B2F5
:10181000B442F4DB0749A01C0F547E21054AE01CAA
:101820001154301D0449087000F0E8FD0120BDE8A6
:10183000F0810000F800002018000020014642F26C
:1018400028324A434FF0E0235A6100229A61012274
:101850001A6100BF4FF0E022106900F001021AB1D6
:1018600000F48032002AF5D000224FF0E0231A6104
:101870009A617047014601EBC1024FF0E0235A61C3
:1018800000229A6101221A6100BF4FF0E022106924
:1018900000F001021AB100F48032002AF5D00022D3
:1018A0004FF0E0231A619A6170470000002004E0C5
:1018B0000021074A1154411CC8B21C28F8D3FF204C
:1018C000044908700020024988760120087070479A
:1018D000C000002024000020F0B5B9484478857885
:1018E000C6780779437924B1012C03D0022C21D189
:1018F00010E020E0B348007858B10220FEF75CFF0A
:101900000320FFF73DF80120FEF756FF0120AC4908
:10191000487010E0AB48007858B10320FEF74CFF48
:101920000120FEF749FF0220FFF72AF80220A44910
:10193000487000E000BF00BF35B1012D11D0022D6D
:1019400016D0032D22D11AE00D20FEF735FF0E2010
:10195000FEF732FF0F20FEF72FFF00209849887016
:1019600015E00D20FFF70CF80120954988700EE076
:101970000E20FFF705F802209149887007E00F203C
:10198000FEF7FEFF03208E49887000E000BF00BF15
:1019900016B1012E0ED106E01020FEF70DFF00203B
:1019A0008749C87007E01020FEF7EAFF012084494C
:1019B000C87000E000BF00BF17B1012F0ED106E0D4
:1019C0001120FEF7F9FE00207D49087107E0112083
:1019D000FEF7D6FF01207A49087100E000BF00BF82
:1019E0007848007800286FD00D2B6ED2DFE803F026
:1019F000071728394A5B6E7F90A1B2C3D30000203D
:101A00006F49487170480078704948717048007893
:101A1000887100206C4908706D490870CDE0012084
:101A20006749487168480078684948716848007893
:101A30008871002064490870012065490870BCE085
:101A400002205F49487160480078604948716048E9
:101A50000078887100205C49087002205C49087099
:101A6000ABE0032056494871574800785749487100
:101A70005748007888710020534908700320544962
:101A800008709AE004204E4948714F4800784F4949
:101A900048714F480078887100204B490870042035
:101AA0004B49087089E0052045494871464800784F
:101AB00046494871464800788871002042490870BC
:101AC00005204349087078E078E075E006203C493D
:101AD00048713D4800783D4948713D48007888711B
:101AE00000203949087006203949087065E0072050
:101AF0003349487134480078344948713448007893
:101B0000887100203049087007203149087054E07E
:101B100008202B4948712C4800782C4948712C48E2
:101B2000007888710020284908700820284908702A
:101B300043E009202249487123480078234948712D
:101B400023480078887100201F4908700920204927
:101B5000087032E00A201A4948711B4800781B4976
:101B600048711B48007888710120174908700020CF
:101B70001749087021E00B2011494871124800787C
:101B80001249487112480078887101200E49087086
:101B90000F49087011E00C20094948710A48007883
:101BA0000A4948710A48007888710120064908707E
:101BB00002200749087000E000BF00BFF0BD000030
:101BC000C00000204B0000204A00002070010020CF
:101BD000490000202DE9F0412E48867E002731463D
:101BE000002000F059F8054615B10B20FEF7C8FE9D
:101BF00015B90B20FEF7E0FD012446E031462046F2
:101C000000F04AF810B3052C18D2DFE804F00F03F7
:101C100007130B000A20FEF7B3FE10E00920FEF7C1
:101C2000AFFE0CE00820FEF7ABFE08E00B20FEF74D
:101C3000A7FE04E00C20FEF7A3FE00E000BF00BFFB
:101C40003220FFF7FBFDFEF749FC1CE0052C18D203
:101C5000DFE804F00F0307130B000A20FEF7ACFDCA
:101C600010E00920FEF7A8FD0CE00820FEF7A4FD17
:101C700008E00B20FEF7A0FD04E00C20FEF79CFD21
:101C800000E000BF00BF601CC4B2052CB6DDBDE89B
:101C9000F0810000C0000020024601209040084072
:101CA0007047000039B1084A927E012383401A43ED
:101CB000054B9A7606E0044A927E012383409A43BC
:101CC000014B9A7670470000DC0000200EB5FEF74D
:101CD000A3FBFFF733FBFFF757FB01210846FFF794
:101CE00059F902219448FEF793FB01219248FEF72F
:101CF00091FBFEF731FDFEF755FD3220FFF79EFD0B
:101D0000FFF7D4FD00F096FB4FF47A708B49086022
:101D100011E1FEF7E1FE00F019F9FFF74FFC8748EB
:101D20000068B0F57A7FF3D90021FDE0844800789F
:101D3000052803DB0120824A107004E08048007807
:101D4000401C7F4A10707E4800787E4A10717C48A3
:101D50000078062863D2DFE800F0620316293C4FC2
:101D60007948C08800128DF80000774880798DF896
:101D700001007548008900128DF802007248007A4F
:101D80008DF803004CE07048408900128DF8000087
:101D90006D48807A8DF801006B48808900128DF8BB
:101DA00002006948007B8DF8030039E06648C0896D
:101DB00000128DF800006448807B8DF801006248B5
:101DC000008A00128DF802005F48007C8DF8030045
:101DD00026E05D48408A00128DF800005A48807C59
:101DE0008DF801005848808A00128DF8020056488C
:101DF000007D8DF8030013E05348C08A00128DF86F
:101E000000005148807D8DF801004F48008B001282
:101E10008DF802004C48007E8DF8030000E000BF02
:101E200000BF9DF8000048B99DF8010030B99DF849
:101E3000020018B99DF8030000B973E09DF8002076
:101E400010029DF80120024490B24FF47A7290FB88
:101E5000F2F23C4B1A704FF47A7290FBF2F302FBF1
:101E60001302642392FBF3F2364B5A704FF47A72EA
:101E700090FBF2F302FB1302642392FBF3F403FBE7
:101E800014220A2392FBF3F22E4B9A704FF47A72CB
:101E900090FBF2F302FB1302642392FBF3F403FBC7
:101EA00014220A2392FBF3F403FB1422254BDA706D
:101EB0009DF8022010029DF80320024490B24FF4D6
:101EC0007A7290FBF2F29A724FF47A7290FBF2F30C
:101ED00002FB1302642392FBF3F21A4B5A724FF483
:101EE0007A7290FBF2F302FB1302642392FBF3F489
:101EF00003FB14220A2392FBF3F2124B1A724FF4E3
:101F00007A7290FBF2F302FB1302642392FBF3F468
:101F100003FB14220A2392FBF3F403FB1422094B64
:101F2000DA7104E0481CC1B20529FFF6FFAE00BF1C
:101F3000002002490860ECE6001001402C0000205F
:101F40002600002070010020C000002010B50848C5
:101F50000078012805D1FEF7C1FA01200549087073
:101F600004E0FEF71FFC00200249087010BD0000CD
:101F7000C0000020DC00002010B50446012C0ED16A
:101F800000201B49086000F03FF800F045F8FEF71C
:101F9000BDFBFEF7A3FA01201649087026E00221D6
:101FA0001548FEF735FA01211348FEF733FAFEF71C
:101FB000F9FB00200F498870C87008710F4800783D
:101FC0000F4948710F48007888710C48007800EB81
:101FD00080000C49097801EB400006494871002057
:101FE00006490870074908700249087010BD0000D2
:101FF0004C000020C0000020001001404A000020DA
:10200000700100204900002000B51220FEF7B8FC46
:102010001320FEF7B5FC00BD00B50420FEF7B0FCB0
:1020200000BD000000B50E48407928B90D48007881
:102030000D490978084448B10520FEF7A1FC0620A7
:10204000FEF79EFC0720FEF79BFC08E00520FEF74C
:10205000B3FB0620FEF7B0FB0720FEF7ADFB00BD8B
:10206000C0000020490000204A00002010B55D4853
:102070000078052874D2DFE800F0034379879F00D9
:102080004FF400715848FEF7BAF970B9002057496B
:10209000087057480088002803DD04205149087063
:1020A0002DE002204F49087029E05148008800289F
:1020B00025DD4F480088401E4D49088008460088AD
:1020C000E8B94A480078022819D100204949086037
:1020D0004948007818B901204849087002E00020FA
:1020E000464908704648007818B1002044490870F5
:1020F00002E001204249087001203C4908706CE070
:102100004FF400713848FEF77AF950BB3D4800881B
:10211000401C3C49088008460088B0F5C87F03DAB7
:1021200002203249087020E03048007803280DD0A2
:1021300003202E49087000202E4908602E480078A0
:10214000012812D10420FEF7CBFD0EE02D480088B7
:10215000B0F5C87F09DB4FF4C8702A49088004E055
:1021600037E0FFE702201F49087036E04FF40071A6
:102170001D48FEF744F918B103201A49087002E01F
:1021800001201849087028E04FF400711648FEF746
:1021900036F968B11B480088B0F5C87F02DA0A201A
:1021A000134908800020174908800E49087002E092
:1021B00002200C49087010E04FF400710A48FEF745
:1021C0001EF928B10120094908700020054908704E
:1021D00003E000200349087000BF00BF6420FFF740
:1021E00049FB10BD510000200008014050000020B4
:1021F000540000204C000020C0000020DC00002023
:10220000340000205200002000B501210620FFF715
:1022100049FD00BD10B58AB001208DF804001B20D7
:102220008DF80500002406E00948015DA01C01AA04
:102230001154601CC4B21B2CF6DB1D2101A800F058
:102240000DF900210620FFF72DFD00200AB010BD7A
:10225000DC0000201CB50446012C00DD0124022016
:102260008DF8000001208DF801008DF80240032157
:102270006846FFF7B9FA00201CBD00003149097813
:10228000D1B9F12807D0F22805D000212E4A1170CB
:102290002C4A11707047F12803D107212B4A117085
:1022A00002E02121294A1170294908700121264A9A
:1022B0001170244A117043E023490978012917D18C
:1022C000F12809D022490978F12905D100211E4AB7
:1022D00011701C4A1170DDE7F22809D01C490978F9
:1022E000F22905D10021184A1170164A1170D1E760
:1022F0001749154A1278885413490978491C124A1B
:10230000117011460978114A1278914218DB0022A7
:102310000D4B1A700B4B1A7001220E4B1A700022D3
:102320000D4B1A60002100BF05E0094A525C0B4BBF
:102330005A544A1CD1B2054A12789142F5DB00BFCB
:1023400000BFA7E72100002022000020230000207A
:102350008400002015000020300000205C000020D8
:1023600010B51F4800781F490978884211DC1E48C3
:102370001B4A1278815C1D48FFF70BF940F2277168
:102380001A48FFF71EF816480078401C14490870D8
:102390001DE01548124A1278815C1448FFF7F9F8DD
:1023A00040F227711148FFF70CF800200C49087023
:1023B00001200F490870002240F227710B48FFF7F7
:1023C00052F800200B49086002200B4908600448BD
:1023D0000078282802DD00200149087010BD0000A7
:1023E0001600002018000020F800002000440040E3
:1023F00017000020300000201408014010B5002014
:10240000084908700849087002200849086001203E
:10241000FFF714FA012240F227710548FFF723F86D
:1024200010BD00001700002015000020100801401A
:102430000044004010B5FDF7FFFE4FF41650FDF7C5
:10244000B9FE012240F225510348FFF70CF80121A3
:102450000148FEF7C5FF10BD004400402DE9F041E2
:1024600005460E46F2200F4908704870002408E027
:10247000295D0C4AA01C1154285D3844C7B2601C69
:10248000C4B2B442F4DB0749A01C0F547E21054AB4
:10249000E01C1154301D04490870FFF7AFFF012004
:1024A000BDE8F081F800002018000020022806D1C5
:1024B0000E49097819B102210D4A917014E00128E2
:1024C00003D101210A4A91700EE0022803D10221B2
:1024D000074A917008E0032803D10321044A917050
:1024E00002E00021024A9170704700004B0000207A
:1024F000DC000020FA0ABC9E4ED6F68AFEDE000002
:1025000020250008000000205C0000009E15000847
:102510007C2500085C00002034050000AE15000892
:102520000000000001020304010203040607080979
:102530000204060800000000000000000000000087
:1025400000000000FFFF000000000000000000008D
:102550000000000001000102030405060708090A43
:102560000B0C0D0E0F1011121300000100000000E3
:0C2570000000000000000000000000005F
:0400000508000131BD
:00000001FF
