:020000040800F2
:100000007005002045010008B90C0008C104000873
:10001000B50C0008C90200083B16000800000000EB
:10002000000000000000000000000000491100086E
:10003000CD02000800000000410D00082D1200084C
:100040005F0100085F0100085F0100085F01000810
:100050005F0100085F0100085F0100085F01000800
:100060005F0100085F0100085F0100085F010008F0
:100070005F0100085F0100085F0100085F010008E0
:100080005F0100085F0100085F0100085F010008D0
:100090005F0100085F0100085F0100085F010008C0
:1000A0005F0100085F0100085F0100085F010008B0
:1000B000911200085F0100085F0100085F0100085D
:1000C0005F0100085F0100085F0100085F01000890
:1000D0005F010008531400085B1400085F0100086A
:1000E0005F0100085F0100085F0100085F01000870
:1000F0005F0100085F0100085F0100085F01000860
:100100005F0100085F0100085F0100085F0100084F
:100110005F0100085F0100085F0100085F0100083F
:100120005F0100085F0100085F0100085F0100082F
:10013000DFF80CD000F018F80048004769190008F3
:10014000700500200648804706480047FEE7FEE7A6
:10015000FEE7FEE7FEE7FEE7FEE7FEE7FEE7FEE777
:100160003112000831010008064C074D06E0E06836
:1001700040F0010394E8070098471034AC42F6D3EE
:10018000FFF7DAFF202200084022000810B5002403
:1001900040F22551064801F08CF940B1044800882E
:1001A00000F0200018B10248001D0088C4B210BD44
:1001B000003801407FB5044600F03EF82546009522
:1001C0000020ADF80400ADF80600ADF80800ADF869
:1001D0000C000C20ADF80A006946024801F0B8F99D
:1001E0007FBD00000044004010B5002440F22551BE
:1001F000104801F05EF960B120210E4801F04CF981
:10020000012806D10B4801F00FFAC4B2204601F0D4
:10021000DFFE40F22771074801F04BF9012807D1B2
:100220008021044801F038F9012801D101F04CFF88
:1002300010BD0000004400401CB50121042000F066
:1002400009FF00214FF4003000F0F4FE01214804C2
:1002500000F0F0FE26208DF8000000208DF801004F
:1002600007208DF8020001208DF80300684600F099
:1002700025FD0420ADF8040018208DF807000320A8
:100280008DF8060001A90F4800F021F80820ADF80C
:10029000040004208DF8070001A90A4800F017F8AF
:1002A0000220ADF8040010208DF8070003208DF81F
:1002B000060001A9034800F00AF80221014800F0F5
:1002C0009AF81CBD0008014000BFFEE770472DE909
:1002D000F0410246002500260020002300240027CC
:1002E00091F803C00CF00F0591F803C00CF0100C4E
:1002F000BCF1000F03D091F802C04CEA050591F85B
:1003000000C0BCF1000F31D0146800202BE04FF08A
:10031000010C0CFA00F3B1F800C00CEA03069E428F
:1003200020D183004FF00F0C0CFA03F7BC4305FA01
:1003300003FC4CEA040491F803C0BCF1280F06D179
:100340004FF0010C0CFA00FCC2F814C00AE091F85E
:1003500003C0BCF1480F05D14FF0010C0CFA00FCB2
:10036000C2F810C0401C0828D1D31460B1F800C0F6
:10037000BCF1FF0F34DD546800202EE000F1080CC2
:100380004FF0010808FA0CF3B1F800C00CEA0306BC
:100390009E4221D183004FF00F0C0CFA03F7BC43AF
:1003A00005FA03FC4CEA040491F803C0BCF1280FE1
:1003B00005D100F1080C08FA0CF8C2F8148091F885
:1003C00003C0BCF1480F07D100F1080C4FF0010841
:1003D00008FA0CF8C2F81080401C0828CED35460EC
:1003E000BDE8F0810246002093680B400BB101206C
:1003F00000E00020704741617047016170470000D4
:1004000008B501211C2000F025FE4FF4E070ADF886
:10041000000010208DF8030003208DF802006946CB
:100420002448FFF754FF0320ADF8000010208DF89A
:10043000030003208DF8020069461F48FFF747FFBD
:100440004FF46070ADF8000028208DF80300694675
:100450001948FFF73CFF4FF44070ADF8000028202A
:100460008DF8030069461548FFF731FF4FF480719E
:100470001048FFF7C2FF80210E48FFF7BEFF402162
:100480000C48FFF7BAFFC82001F0B4F9522000F081
:10049000C5F8302000F0C2F8002000F0BFF80A20B4
:1004A00000F0BCF8022000F0B9F8062000F0B6F821
:1004B00008BD0000000C0140001001400008014090
:1004C00000BFFEE710B5062000F04CFA0C23002216
:1004D0000249034800F006F810BD0000500100205A
:1004E0002C0000202DE9F05F05460E461446984684
:1004F0000F274FF000095EE064B960064FEA106B09
:1005000028782F490F5C3946584600F0A5F8601C42
:10051000C4B26D1CECB1072C1BDC30782949085C97
:100520002978274A515C40EA010760064FEA106BC0
:100530003946584600F090F80120C0EB440000F026
:10054000FF0A3911504600F087F86D1C761C601CBC
:10055000C4B2072C1DDD0C2C1BD030781949085C67
:100560002978174A515C40EA01070120C0EB44009A
:1005700000F0FF0B3946584600F06EF860064FEA6F
:10058000106A3911504600F067F8761C6D1C601C2B
:10059000C4B20C2C0BD1287809490F5C0120C0EBA8
:1005A000440000F0FF0B3946584600F055F809F1B9
:1005B000010000F0FF09C1459EDBBDE8F09F00008F
:1005C0003C010020142200082DE9F04105460C46AC
:1005D00016464FF480711048FFF70DFF0321A0204D
:1005E00000F05EF8A906080E062100F059F8002771
:1005F00006E02078082100F053F8641C781CC7B28C
:10060000B742F6DB4FF480710348FFF7F6FE012096
:1006100001F00CF9BDE8F081000C014010B5044672
:100620004FF480710B48FFF7E6FE012001F0FEF861
:100630000421802000F034F80821204600F030F832
:100640004FF480710348FFF7D8FE012001F0EEF867
:1006500010BD0000000C014070B505460C464FF47B
:1006600080710E48FFF7C7FEA806050E2007040E8E
:100670000321A02000F014F80621284600F010F80D
:100680000421204600F00CF84FF480710348FFF776
:10069000B4FE012001F0CAF870BD0000000C01405A
:1006A0002DE9F04104460D468027002619E08021FF
:1006B0000E48FFF7A0FE04EA070020B140210B48D6
:1006C000FFF79BFE03E040210848FFF794FE7F10F0
:1006D000012001F0ABF880210448FFF78EFE701C6A
:1006E000C6B2AE42E3DBBDE8F0810000000C014081
:1006F00010B51048006840F6B831884208D302218E
:100700000D48FFF778FE01210B48FFF776FE07E062
:1007100002210948FFF771FE01210748FFF76BFE30
:100720000448006840F6B831884202D308460149BF
:10073000086010BD4C00002000100140002010494E
:10074000087048708870C870087148718871C871E5
:10075000087248728872C872087348738873C873C5
:100760000874487488740749087048708870C870A5
:10077000087148718871C871087248728872704730
:100780003C0100205001002010B510220249002039
:10079000FFF71AFF10BD00005B010020012805D102
:1007A0006F49497821F001016D4A5170022805D145
:1007B0006B49897821F00101694A9170032805D1BC
:1007C0006749C97821F00101654AD170042805D133
:1007D0006349097921F00101614A1171052805D1A8
:1007E0005F49497921F001015D4A5171062805D11F
:1007F0005B49897921F00101594A9171072805D196
:100800005749C97921F00101554AD171082805D10C
:100810005349097A21F00101514A1172092805D181
:100820004F49497A21F001014D4A51720A2805D1F8
:100830004B49897A21F00101494A91720B2805D16F
:100840004749C97A21F00101454AD1720C2805D1E6
:100850004349497C21F00101414A51744049897C56
:100860003F4A527C11433E4A11730D2804D1114670
:10087000897C21F0080191743949897C384A527C7D
:100880001143374A11730E2804D11146897C21F097
:10089000040191743249897C314A527C1143304AB7
:1008A00011730F2804D11146897C21F00201917443
:1008B0002B49897C2A4A527C1143294A11731028FA
:1008C00004D11146097C21F0080111742449497BA7
:1008D000234A927B1143224AD27B1143204A127C45
:1008E00011431F4A1170112804D11146C97B21F010
:1008F0000401D1731A49497B194A927B1143184A62
:10090000D27B1143164A127C1143154A11701228EA
:1009100004D11146897B21F0020191731049497B72
:100920000F4A927B11430E4AD27B11430C4A127C30
:1009300011430B4A1170132804D11146497B21F051
:10094000010151730649497B054A927B1143044AD0
:10095000D27B1143024A127C1143014A1170704745
:100960003C010020012802D10121534A5170022884
:1009700002D10121504A9170032802D101214E4A2F
:10098000D170042802D101214B4A1171052802D1EE
:100990000121494A5171062802D10121464A91712B
:1009A000072802D10121444AD171082802D101212E
:1009B000414A1172092802D101213F4A51720A2885
:1009C00002D101213C4A91720B2802D101213A4AFD
:1009D000D1720C2802D10121374A51743649897CE1
:1009E000354A527C1143344A11730D2801D1082134
:1009F00091743149897C304A527C11432E4A1173DB
:100A00000E2801D1042191742B49897C2A4A527CF9
:100A10001143294A11730F2801D1022191742649EB
:100A2000897C254A527C1143234A1173102801D135
:100A3000082111742049497B1F4A927B11431E4AA9
:100A4000D27B11431C4A127C11431B4A117011289E
:100A500001D10421D1731849497B174A927B114374
:100A6000154AD27B1143144A127C1143124A117069
:100A7000122801D1022191730F49497B0E4A927BC2
:100A800011430D4AD27B11430B4A127C11430A4A8F
:100A90001170132801D1012151730749497B064A7E
:100AA000927B1143044AD27B1143034A127C1143C7
:100AB000014A1170704700003C01002010B54FF44E
:100AC00000716F48FFF78EFC00284ED16D4800780A
:100AD00001284AD10A2000F08DFE4FF400716848C9
:100AE000FFF780FC002835D16748007868BB67486D
:100AF0000078401C65490870084600780A2804D12F
:100B000000200870012062490870614800780128BF
:100B100009D15E480078032805DB02205B49087094
:100B200001205B4908705A4800785A494871574873
:100B3000007888715648007800EB800053490978A6
:100B400001EB40005449487104E054480078C04328
:100B50005249087000BF4FF400714948FFF742FC4A
:100B60000028F8D000204E4908604FF480714448B6
:100B7000FFF738FC00284FD14248007801284BD1BC
:100B80000A2000F037FE4FF480713D48FFF72AFC41
:100B900080BB3D48007870BB3D480078012808D1F3
:100BA0003A48007828B90020394908700A203749A6
:100BB00008703648007848B134480078002805DDD0
:100BC00032480078401E3149087002E000202F4969
:100BD00008702F4800782F4948712C480078887198
:100BE0002B48007800EB80002849097801EB400091
:100BF0002949487105E0FFE72A480078C0432949A0
:100C0000087000BF4FF480711D48FFF7EBFB002810
:100C1000F8D00020224908604FF480712248FFF785
:100C2000E1FB60BB17480078012828D10A2000F0BA
:100C3000E1FD4FF480711C48FFF7D4FBA0B91248C6
:100C4000007888B119480078012802D1002017499E
:100C5000087017480078401C15490870084600784D
:100C6000032801D10020087000BF4FF480710E48A6
:100C7000FFF7B8FB0028F8D000200949086010BD34
:100C800000100140470000204800002042000020E2
:100C90004300002050010020BC000020450000203F
:100CA0004C000020460000200008014041000020C8
:100CB0004000002000BFFEE77047000070B5002133
:100CC00000230F22C47804B3154C246804F4E064B4
:100CD000C4F5E064210AC1F10403CA40447804FA6F
:100CE00003F184781440214309010E4C0678A15584
:100CF000047804F01F050124AC4005786D11AD00A7
:100D000005F1E025C5F8004109E0047804F01F056D
:100D10000124AC40044D0678761145F8264070BD9C
:100D20000CED00E000E400E080E100E00249014356
:100D3000024A1160704700000000FA050CED00E067
:100D40007047000010B55748007801286FD1564809
:100D5000007805286CD2DFE800F0033C6C798F0046
:100D600080215248FFF73EFB70B9002050490870BF
:100D700050480088002803DD04204B49087027E014
:100D800002204949087023E04A48008800281FDDF6
:100D900048480088401E4749088008460088B8B97E
:100DA00043480078022813D10020434908600120FD
:100DB0004249087042480078401C41490870084682
:100DC0000078022801D100200870012038490870FD
:100DD00062E080213548FFF705FB20BB39480088D9
:100DE000401C3849088008460088C82803DA0220D9
:100DF0002F4908701AE02E48007803280BD00320F2
:100E00002B49087000202C4908602C4908700120EB
:100E10002B4908700AE02B480088C82806DBC82048
:100E20002849088002E002201F49087034E037E0BA
:100E30002EE080211D48FFF7D5FA18B103201A498A
:100E4000087002E001201849087025E08021174849
:100E5000FFF7C8FA60B11B480088C82802DA0A20E8
:100E6000144908800020174908800F49087002E0E3
:100E700002200D4908700FE080210C48FFF7B2FAFC
:100E800028B101200A49087000200749087003E0D2
:100E900000200549087000BF00BF642000F0C6FCB8
:100EA00010BD000047000020560000200010014047
:100EB00054000020520000204C0000204800002078
:100EC000410000205000002010B55248007805284D
:100ED00072D2DFE800F00334607289004FF40071D1
:100EE0004D48FFF77FFA70B900204C4908704C4814
:100EF0000088002803DD0420464908701EE0022017
:100F0000444908701AE046480088002816DD444825
:100F10000088401E424908800846008870B93F4852
:100F2000007802280AD100203E4908603E48007837
:100F3000C0433D49087001203849087065E04FF40E
:100F400000713548FFF74EFA08BB38480088401C4E
:100F50003649088008460088C82803DA02202F494D
:100F6000087017E02D480078032808D003202B498B
:100F7000087000202B4908602D4908700AE02B48B2
:100F80000088C82806DBC8202849088002E0022023
:100F90002049087039E04FF400711F48FFF722FA2A
:100FA00030B103201B49087001202149087002E07C
:100FB00001201849087028E023E04FF4007116481A
:100FC000FFF710FA60B119480088C82802DA0A2031
:100FD000134908800020154908800E49087002E076
:100FE00002200C49087010E04FF400710A48FFF726
:100FF000F9F928B101200949087000200549087055
:1010000003E000200349087000BF00BF642000F027
:101010000DFC10BD550000200008014054000020C8
:10102000520000204C00002047000020500000200B
:101030004900002029B1064AD2690243044BDA6113
:1010400004E0034AD2698243014BDA617047000031
:101050000010024029B1064A92690243044B9A618A
:1010600004E0034A92698243014B9A617047000091
:101070000010024030B500210022002400232D4D35
:101080006D6805F00C0121B1042905D0082923D190
:1010900005E0294D056022E0274D05601FE0254D44
:1010A0006D6805F47012234D6D6805F480340225D7
:1010B00005EB92421CB9214D554305600BE01D4DD7
:1010C0006D6805F400351DB11C4D5543056002E007
:1010D000194D5543056002E0174D056000BF00BF84
:1010E000144D6D6805F0F0010909154D6B5C05683C
:1010F000DD4045600F4D6D6805F4E061090A104D53
:101100006B5C4568DD4085600A4D6D6805F4605193
:10111000C90A0B4D6B5C4568DD40C560054D6D68C7
:1011200005F44041890B074D6B5CC568B5FBF3F5D1
:10113000056130BD0010024000127A0000093D0038
:101140000000002010000020704710B500F002F8E9
:1011500010BD00000CB500200190009031480068DF
:1011600040F480302F49086000BF2E48006800F42A
:10117000003000900198401C0190009818B9019827
:10118000B0F5A06FF1D12748006800F4003010B12D
:101190000120009001E000200090009801283FD13C
:1011A0002148006840F010001F49086008460068A8
:1011B00020F003000860084600680860194840688D
:1011C00018494860084640684860084640684860DA
:1011D0000846406820F47C1048600846406840F4A7
:1011E000981048600846006840F08070086000BFB2
:1011F0000C48006800F000700028F9D009484068E9
:1012000020F00300074948600846406840F00200AB
:10121000486000BF0348406800F00C000828F9D17E
:101220000CBD00000010024000200240704700008A
:1012300010B51348006840F00100114908600846E5
:101240004068104908400E494860084600680E4949
:1012500008400B4908600846006820F480200860B8
:101260000846406820F4FE0048604FF41F00886084
:10127000FFF76BFF4FF000600449086010BD0000ED
:10128000001002400000FFF8FFFFF6FE08ED00E04E
:1012900010B50121880700F035F8D0B10D4800687D
:1012A000401C0C4908600C480068401C20B10A48EA
:1012B0000068401C0849086008480068401C20B1CC
:1012C00006480068401C054908600121880700F0B5
:1012D0000AF810BD4C000020240000202800002047
:1012E000CA4302827047CA430282704721B1028812
:1012F00042F00102028004E002884FF6FE731A40B9
:101300000280704730B50246002000230024158A71
:1013100005EA0103958905EA010413B10CB1012026
:1013200000E0002030BD1AB183890B43838102E0C5
:1013300083898B4383817047002202881D4B98422A
:101340000ED01D4B98420BD0B0F1804F08D01B4BF4
:10135000984205D01A4B984202D01A4B984204D1B9
:101360004FF68F731A404B881A43174B984207D099
:10137000164B984204D04FF6FF431A40CB881A43CD
:1013800002808B8883850B8803850A4B98420BD09B
:10139000094B984208D00E4B984205D00D4B98420D
:1013A00002D00D4B984201D10B7A03860123838230
:1013B00070470000002C0140003401400004004050
:1013C00000080040000C00400010004000140040E5
:1013D0000040014000440140004801400EB5012199
:1013E0000846FFF727FE4FF47A70ADF80400472057
:1013F000ADF800000020ADF8020069464FF08040D3
:10140000FFF79AFF01218807FFF76AFF01221146C3
:101410009007FFF788FF01218807FFF767FF00218A
:101420000120FFF707FE0EBD08B54FF4E060FFF79F
:101430007DFC1C208DF8000000208DF801000320A9
:101440008DF8020001208DF803006846FFF736FC96
:1014500008BD10B5FEF79AFE10BD10B5FEF7C4FE2C
:1014600010BD10B50022002340F66A14A14200D13D
:1014700000BF0A1201249440A3B2DC43048010BDD3
:1014800021B1828942F40052828104E082894DF6C2
:10149000FF731A408281704702460020B1F5007F39
:1014A00000D100BF13880B400BB1012000E00020E9
:1014B000704770B50246002400230025002040F646
:1014C0006A16B14200D100BFC1F3421501F01F03FB
:1014D000012606FA03F3012D02D19689334006E076
:1014E000022D02D1168A334001E0968A33400C1255
:1014F000012606FA04F41688344013B10CB1012019
:1015000000E0002070BDF0B5034600240026002551
:10151000002040F66A17B94200D100BF1846C1F357
:10152000421401F01F06012707FA06F5012C01D12C
:101530000C3004E0022C01D1103000E014301AB15C
:1015400007682F43076002E00768AF430760F0BDFC
:101550002DE9F04786B005460E460024A24600BF9E
:10156000A1460027B08900B100BF2F462C8A4CF657
:10157000FF700440F08804432C82AC894EF6F310CF
:101580000440B08831890843718908430443AC8121
:10159000AC8A4FF6FF400440B0890443AC8201A8F6
:1015A000FFF768FD1F48874202D1DDF810A001E077
:1015B000DDF80CA0A88900F4004040B10AEBCA0095
:1015C00000EB0A1031684900B0FBF1F807E00AEBC4
:1015D000CA0000EB0A1031688900B0FBF1F8642002
:1015E000B8FBF0F004012009642101FB1089A889EF
:1015F00000F4004040B1322000EBC900B0FBF1F034
:1016000000F00700044308E0322000EB09106421D9
:10161000B0FBF1F000F00F0004432C8106B0BDE8F0
:10162000F08700000038014001468888C0F30800B8
:101630007047C1F308028280704700BFFEE702E0F6
:1016400008C8121F08C1002AFAD17047704700204D
:1016500001E001C1121F002AFBD1704700B58BB019
:1016600060480078002823D000205E49087000BF41
:1016700005E05D49095C01AA1154411CC8B2282843
:10168000F7DB002004E00021574A1154411CC8B286
:101690002828F8DB9DF80400F1280AD19DF8050000
:1016A000F12806D19DF80600012801D100F070FC58
:1016B00096E09DF80400F228FAD19DF80500F22882
:1016C000F6D19DF8100000024849088108460089BB
:1016D0009DF811100844454908819DF80E0000024C
:1016E000C8800846C0889DF80F1008443F49C8804C
:1016F0009DF8140000028881084680899DF8151025
:1017000008443A4988819DF8120000024881084641
:1017100040899DF813100844344948819DF8180009
:10172000000208820846008A9DF8191008442F49D3
:1017300008829DF816000002C8810846C0899DF8FD
:10174000171008442949C8819DF81C0000028882AE
:101750000846808A9DF81D100844244988829DF817
:101760001A00000248820846408A9DF81B1008446F
:101770001E4948829DF82000000208830846008B1D
:101780009DF821100844194908839DF81E000002A5
:10179000C8820846C08A9DF81F1008441349C882B1
:1017A0009DF8220088769DF808000870104800789F
:1017B000FF2805D0084600780D49097888420DD0E9
:1017C0000A48007818B9002000F062FA02E001200F
:1017D00000F05EFA054800780549087000F058F8F6
:1017E0000BB000BD1500002058000020BC000020F8
:1017F0001C000020014642F228324A434FF0E02309
:101800005A6100229A6101221A6100BF4FF0E02262
:10181000106900F001021AB100F48032002AF5D0FC
:1018200000224FF0E0231A619A617047014601EBF4
:10183000C1024FF0E0235A6100229A6101221A612D
:1018400000BF4FF0E022106900F001021AB100F46D
:101850008032002AF5D000224FF0E0231A619A610D
:1018600070470000002004E00021074A1154411C89
:10187000C8B21C28F8D3FF20044908700020024990
:101880008876012008707047BC0000201C000020F2
:1018900070B52748857E002446E02946204600F0A2
:1018A00049F810B3052C18D2DFE804F003070B1336
:1018B0000F000B20FFF756F810E00A20FFF752F850
:1018C0000CE00920FFF74EF808E00C20FFF74AF87B
:1018D00004E00820FFF746F800E000BF00BF322018
:1018E000FFF788FFFEF7EEFD1CE0052C18D2DFE8BD
:1018F00004F003070B0F13000B20FEF74FFF10E05F
:101900000A20FEF74BFF0CE00920FEF747FF08E036
:101910000820FEF743FF04E00C20FEF73FFF00E045
:1019200000BF00BF601CC4B2052CB6DD70BD000056
:10193000BC00002002460120904008407047000093
:1019400039B1084A927E012383401A43054B9A76A7
:1019500006E0044A927E012383409A43014B9A7623
:1019600070470000BC0000200EB5FEF749FDFFF7F0
:1019700035FDFFF759FD01210846FFF75BFB02210A
:101980009648FEF738FD01219448FEF736FDFEF734
:10199000D5FEFEF7F9FE3220FFF72CFFFFF762FFBE
:1019A00000F0FCFB4FF47A708D49086015E1FFF7F9
:1019B0008BFAFFF783F8FFF7C5F900F019F9FFF785
:1019C0004DFE87480068B0F57A7FEFD90021FDE031
:1019D00084480078052803DB0120824A107004E067
:1019E00080480078401C7F4A10707E4800787E4A0C
:1019F00010717C480078062863D2DFE800F06203AB
:101A000016293C4F7948C08800128DF800007748AD
:101A100080798DF801007548008900128DF8020068
:101A20007248007A8DF803004CE07048408900123B
:101A30008DF800006D48807A8DF801006B48808930
:101A400000128DF802006948007B8DF8030039E030
:101A50006648C08900128DF800006448807B8DF8CC
:101A600001006248008A00128DF802005F48007C85
:101A70008DF8030026E05D48408A00128DF80000D2
:101A80005A48807C8DF801005848808A00128DF8F1
:101A900002005648007D8DF8030013E05348C08AC9
:101AA00000128DF800005148807D8DF801004F48EC
:101AB000008B00128DF802004C48007E8DF8030068
:101AC00000E000BF00BF9DF8000048B99DF801008C
:101AD00030B99DF8020018B99DF8030000B973E011
:101AE0009DF8002010029DF80120024490B24FF4AE
:101AF0007A7290FBF2F23C4B1A704FF47A7290FBC0
:101B0000F2F302FB1302642392FBF3F2364B5A709A
:101B10004FF47A7290FBF2F302FB1302642392FB00
:101B2000F3F403FB14220A2392FBF3F22E4B9A7078
:101B30004FF47A7290FBF2F302FB1302642392FBE0
:101B4000F3F403FB14220A2392FBF3F403FB1422A5
:101B5000254BDA709DF8022010029DF80320024404
:101B600090B24FF47A7290FBF2F29A724FF47A725A
:101B700090FBF2F302FB1302642392FBF3F21A4B85
:101B80005A724FF47A7290FBF2F302FB1302642351
:101B900092FBF3F403FB14220A2392FBF3F2124BA1
:101BA0001A724FF47A7290FBF2F302FB1302642371
:101BB00092FBF3F403FB14220A2392FBF3F403FBDE
:101BC0001422094BDA7104E0481CC1B20529FFF662
:101BD000FFAE00BF002002490860E8E600100140A7
:101BE000240000201D00002050010020BC00002027
:101BF00010B521480078012815D100F095F800F0C3
:101C00009BF800F09FF800F0C7F800F0EFF800F044
:101C100031F900F069F9FEF76BFDFEF753FC012086
:101C20001649087026E002211548FEF7E4FB012161
:101C30001348FEF7E2FBFEF7A7FD00200F4988706E
:101C4000C87008710F4800780F4948710F48007834
:101C500088710C48007800EB80000C49097801EB92
:101C6000400006494871002006490870074908707D
:101C70000249087010BD000047000020BC00002091
:101C800000100140430000205001002042000020CD
:101C900010B50446012C15D100F046F800F04CF8C0
:101CA00000F050F800F078F800F0A0F800F0E2F84A
:101CB00000F01AF9FEF71CFDFEF704FC012015499F
:101CC000087026E002211448FEF795FB0121124816
:101CD000FEF793FBFEF758FD00200E498870C87090
:101CE00008710E4800780E4948710E4800788871D6
:101CF0000A48007800EB80000A49097801EB4000AF
:101D000004494871002005490870064908700149D6
:101D1000087010BDBC0000200010014043000020EE
:101D2000500100204200002000B51220FEF71AFEEC
:101D30001320FEF717FE00BD00B50420FEF712FECB
:101D400000BD000000B510480078012806D1102021
:101D5000FEF708FE01200D49C87013E00C4800781A
:101D6000012809D10B48007830B11020FEF7FAFDA8
:101D700001200649C87005E01020FEF70FFD002085
:101D80000249C87000BD000045000020BC000020D2
:101D9000410000204800002000B5104800780128CC
:101DA00006D11120FEF7DEFD01200D49087113E078
:101DB0000C480078012809D10B48007830B1112077
:101DC000FEF7D0FD01200649087105E01120FEF75D
:101DD000E5FC00200249087100BD0000460000201B
:101DE000BC000020410000204800002000B51D4834
:101DF0000078012809D11C48007830B10E20FEF788
:101E0000B1FD0220194988702BE01948007830B9DB
:101E10000D20FEF7A7FD01201449887021E0144829
:101E20000078012806D10E20FEF79CFD02200F4904
:101E3000887016E00E480078022806D10F20FEF7C1
:101E400091FD0320094988700BE00D20FEF7A6FCE8
:101E50000E20FEF7A3FC0F20FEF7A0FC0020034994
:101E6000887000BD4100002048000020BC00002018
:101E70004000002010B51848007858B90320FEF73C
:101E80008DFC0120FEF78AFC0220FEF76BFD00208E
:101E9000124948701048007801280BD10220FEF743
:101EA0007DFC0320FEF75EFD0120FEF777FC01209C
:101EB0000A4948700A48007840B90220FEF76EFCD3
:101EC0000320FEF76BFC0120FEF74CFD054800786F
:101ED00008B900F057F810BD41000020BC000020F8
:101EE000480000204900002000B52248007878B959
:101EF0002148007821490978084448B10520FEF7B7
:101F000031FD0620FEF72EFD0720FEF72BFD2FE00A
:101F10001848007801280FD1174800781749097828
:101F2000084448B10520FEF71DFD0620FEF71AFD06
:101F30000720FEF717FD1BE01148007878B90E481E
:101F400000780E490978084448B10520FEF70AFDDB
:101F50000620FEF707FD0720FEF704FD08E0052038
:101F6000FEF71CFC0620FEF719FC0720FEF716FC06
:101F700000BD00004100002042000020430000207E
:101F80004800002000B501210620FFF7D9FC00BD64
:101F900010B58AB001208DF804001B208DF80500D3
:101FA000002406E00948015DA01C01AA1154601C30
:101FB000C4B21B2CF6DB1D2101A800F003F900219F
:101FC0000620FFF7BDFC00200AB010BDBC000020B9
:101FD00035490978E1B9F12807D0F22805D0002168
:101FE000324A1170304A11707047F12803D107212D
:101FF0002F4A117002E021212D4A11702D492B4AE0
:10200000127888540121294A1170274A117044E03E
:1020100026490978012917D1F12809D025490978DD
:10202000F12905D10021214A11701F4A1170DBE707
:10203000F22809D01F490978F22905D100211B4A4D
:102040001170194A1170CFE71A49184A127888544A
:1020500016490978491C154A117011460978144A25
:102060001278914219DB0021104A11700E4A11704A
:102070000121114A11700021104A116000BF08E0CF
:102080000C4A525C0E4B5A5400220A4B5A544A1CBA
:10209000D1B2074A12789142F2DB08490968094A2D
:1020A000116000BFA0E70000190000201A00002006
:1020B0001B000020800000201500002028000020C8
:1020C000580000202000002010B51F4800781F494C
:1020D0000978884211DC1E481B4A1278815C1D4831
:1020E000FFF7A7FA40F227711A48FFF7BAF9164826
:1020F0000078401C144908701DE01548124A1278F7
:10210000815C1448FFF795FA40F227711148FFF7F8
:10211000A8F900200C49087001200F49087000221E
:1021200040F227710B48FFF7EEF900200B490860D9
:1021300002200B49086004480078282802DD0020AE
:102140000149087010BD0000160000201800002092
:10215000D800002000440040170000202800002084
:102160001408014010B5002008490870084908709B
:102170000220084908600120FFF73CFB012240F2E1
:1021800027710548FFF7BFF910BD000017000020B8
:1021900015000020100801400044004010B5FEF773
:1021A0004BF84FF41650FEF705F8012240F2255186
:1021B0000348FFF7A8F901210148FFF761F910BDB5
:1021C000004400402DE9F04105460E46F2200F493B
:1021D00008704870002408E0295D0C4AA01C1154C6
:1021E000285D3844C7B2601CC4B2B442F4DB07496E
:1021F000A01C0F547E21054AE01C1154301D0449D7
:102200000870FFF7AFFF0120BDE8F081D800002083
:1022100018000020FA0ABC9E4ED6F68AFEDE0000A8
:102220004022000800000020580000003E16000870
:102230009822000858000020180500004E160008DB
:10224000000000000102030401020304060708095C
:10225000020406080000000000000000FF0000006B
:102260000000000000000000000000000001020368
:102270000405060708090A0B0C0D0E0F10111213A6
:102280000000000000010101010100000000000049
:08229000000000000000000046
:0400000508000131BD
:00000001FF
